:020000040800F2
:10000000000002203D6C000891640008996400081B
:10001000A1640008A9640008B164000800000000A1
:10002000000000000000000000000000B9640008AB
:10003000C764000800000000D5640008E3640008FD
:100040008D6C00088D6C00088D6C00088D6C0008AC
:100050008D6C00088D6C00088D6C0008F164000840
:100060008D6C00088D6C00088D6C000865650008BB
:100070008D6C00088D6C00088D6C00088D6C00087C
:100080008D6C00088D6C00088D6C0008000000006D
:100090000000000000000000000000008D6C00085F
:1000A0008D6C00088D6C00088D6C00088D6C00084C
:1000B00079650008DD680008A96A00088D6C0008F1
:1000C0008D6C00088D6C00088D6C00088D6C00082C
:1000D0008D6C00088D6C00088D6C0008000000001D
:1000E0008D6C00088D6C00088D6C0008000000000D
:1000F0000000000000000000000000008D6C0008FF
:10010000000000008D6C00088D6C00088D6C0008EC
:1001100000000000000000000000000000000000DF
:100120008D6C00088D6C00088D6C00088D6C0008CB
:100130008D6C0008000000000000000000000000BE
:100140000000000000000000000000008D6C0008AE
:100150008D6C00088D6C00088D6C00088D6C00089B
:100160008D6C00088D6C000800000000000000008D
:10017000000000000000000000000000000000007F
:10018000000000008D6C000800000000000000006E
:080190008D6C00088D6C000865
:1001980010B5054C237833B9044B13B10448AFF3B9
:1001A80000800123237010BD6400002000000000BF
:1001B80090B8000808B5034B1BB103490348AFF3D7
:1001C800008008BD000000006800002090B800080A
:1001D8004B1C012B98BF70472DE9F003911C9B081D
:1001E800B1F80480B1F802900A8831F802CC804452
:1001F800814402448444D9F80070D8F80060156836
:10020800DCF80040C9F80060C8F80070CCF800506D
:100218001460D9F80470D8F804605568DCF8044014
:10022800C9F80460C8F80470CCF804505460083168
:10023800013BD5D1BDE8F00370474B1C012B98BF9B
:1002480070472DE9F003911C9B08B1F80480B1F8C0
:1002580002900A8831F802CC00EB580800EB5909E3
:1002680000EB520200EB5C0CD9F80070D8F8006083
:100278001568DCF80040C9F80060C8F80070CCF8D0
:10028800005014600831013BDFD1BDE8F00370472E
:1002980081F0004102E000BF83F0004330B54FEA2F
:1002A80041044FEA430594EA050F08BF90EA020F9C
:1002B8001FBF54EA000C55EA020C7FEA645C7FEA2F
:1002C800655C00F0E2804FEA5454D4EB5555B8BF52
:1002D8006D420CDD2C4480EA020281EA030382EAC3
:1002E800000083EA010180EA020281EA0303362D55
:1002F80088BF30BD11F0004F4FEA01314FF4801C28
:100308004CEA113102D0404261EB410113F0004F39
:100318004FEA03334CEA133302D0524263EB4303F0
:1003280094EA050F00F0A780A4F10104D5F1200E8E
:100338000DDB02FA0EFC22FA05F2801841F10001E9
:1003480003FA0EF2801843FA05F359410EE0A5F1BD
:1003580020050EF1200E012A03FA0EFC28BF4CF0EE
:10036800020C43FA05F3C01851EBE37101F00045A4
:1003780007D54FF0000EDCF1000C7EEB00006EEBB1
:100388000101B1F5801F1BD3B1F5001F0CD349083B
:100398005FEA30004FEA3C0C04F101044FEA445292
:1003A80012F5800F80F09A80BCF1004F08BF5FEA19
:1003B800500C50F1000041EB045141EA050130BDF9
:1003C8005FEA4C0C404141EB0101013C28BFB1F50B
:1003D800801FE9D291F0000F04BF01460020B1FA56
:1003E80081F308BF2033A3F10B03B3F120020CDA29
:1003F8000C3208DD02F1140CC2F10C0201FA0CF007
:1004080021FA02F10CE002F11402D8BFC2F1200C6B
:1004180001FA02F120FA0CFCDCBF41EA0C01904021
:10042800E41AA2BF01EB0451294330BD6FEA04046A
:100438001F3C1CDA0C340EDC04F11404C4F1200255
:1004480020FA04F001FA02F340EA030021FA04F367
:1004580045EA030130BDC4F10C04C4F1200220FABE
:1004680002F001FA04F340EA0300294630BD21FAFC
:1004780004F0294630BD94F0000F83F4801306BFC2
:1004880081F480110134013D4EE77FEA645C18BFB6
:100498007FEA655C29D094EA050F08BF90EA020F4D
:1004A80005D054EA000C04BF1946104630BD91EA45
:1004B800030F1EBF0021002030BD5FEA545C05D148
:1004C8004000494128BF41F0004130BD14F5800487
:1004D8003CBF01F5801130BD01F0004545F0FE41FB
:1004E80041F470014FF0000030BD7FEA645C1ABF30
:1004F800194610467FEA655C1CBF0B46024650EA67
:10050800013406BF52EA033591EA030F41F4002192
:1005180030BD00BF90F0000F04BF0021704730B518
:100528004FF4806404F132044FF000054FF00001ED
:1005380050E700BF90F0000F04BF0021704730B5AE
:100548004FF4806404F1320410F0004548BF404283
:100558004FF000013EE700BF42004FEAE2014FEAD8
:1005680031014FEA02701FBF12F07F4393F07F4FB3
:1005780081F06051704732F07F4208BF704793F0B6
:100588007F4F04BF41F40021704730B54FF46074C9
:1005980001F0004521F000411CE700BF50EA0102CC
:1005A80008BF704730B54FF000050AE050EA010275
:1005B80008BF704730B511F0004502D5404261EBE5
:1005C80041014FF4806404F132045FEA915C3FF426
:1005D800D8AE4FF003025FEADC0C18BF03325FEAC3
:1005E800DC0C18BF033202EBDC02C2F1200300FA74
:1005F80003FC20FA02F001FA03FE40EA0E0021FA99
:1006080002F11444BDE600BF4FF0FF3C06E000BF16
:100618004FF0010C02E000BF4FF0010C4DF804CD83
:100628004FEA410C7FEA6C5C4FEA430C18BF7FEA43
:100638006C5C1BD001B050EA410C0CBF52EA430C71
:1006480091EA030F02BF90EA020F0020704710F1F1
:10065800000F91EA030F58BF994208BF90422CBF80
:10066800D8176FEAE37040F0010070474FEA410C79
:100678007FEA6C5C02D150EA013C07D14FEA430C97
:100688007FEA6C5CD6D152EA033CD3D05DF8040B08
:10069800704700BF8446104662468C46194663463A
:1006A80000E000BF01B5FFF7B7FF002848BF10F111
:1006B800000F01BD4DF808EDFFF7F4FF0CBF012056
:1006C80000205DF808FB00BF4DF808EDFFF7EAFFD2
:1006D80034BF012000205DF808FB00BF4DF808ED8D
:1006E800FFF7E0FF94BF012000205DF808FB00BF82
:1006F8004DF808EDFFF7CEFF94BF012000205DF80C
:1007080008FB00BF4DF808EDFFF7C4FF34BF012018
:1007180000205DF808FB00BF4A0011D212F5001254
:1007280011D20DD56FF47873B3EB62520ED44FEA41
:10073800C12343F0004343EA505323FA02F07047C1
:100748004FF00000704750EA013002D14FF0FF30FF
:1007580070474FF00000704753B94AB9002908BFE5
:1007680000281CBF4FF0FF314FF0FF3000F06AB98E
:10077800ADF1080C6DE904CE00F006F8DDF804E0F0
:10078800DDE9022304B070472DE9F047089D0C46C7
:10079800002B4ED194468C458646B2FA82F262D935
:1007A8004AB1C2F12003914020FA03F30CFA02FC8B
:1007B800194300FA02FE4FEA1C471FFA8CF6B1FBF8
:1007C800F7F44FEA1E4307FB141143EA014304FB05
:1007D80006F199420AD91CEB030304F1FF3080F0BB
:1007E8001281994240F20F81023C6344591A1FFA60
:1007F8008EF3B1FBF7F007FB101143EA014300FB4E
:1008080006F69E420AD91CEB030300F1FF3180F083
:10081800FC809E4240F2F980634402389B1B40EA08
:10082800044000211DB1D3400022C5E90032BDE8D3
:10083800F0878B4205D90DB1C5E9000100210846B2
:10084800F5E7B3FA83F1002946D1A34202D39042D7
:10085800C0F0F080861A64EB03030120002DE6D077
:10086800C5E90063E3E7002A40F09080A1EB0C049F
:100878004FEA1C481FFA8CF70121B4FBF8F64FEA3F
:100888001E4308FB164443EA044307FB06F098425C
:1008980008D91CEB030306F1FF3402D2984200F298
:1008A800CD8026461C1A1FFA8EF3B4FBF8F008FB1D
:1008B800104443EA044300FB07F79F4208D91CEBA6
:1008C800030300F1FF3402D29F4200F2B0802046B9
:1008D800DB1B40EA0640A5E7C1F120068B4022FA5F
:1008E80006F71F4320FA06FC04FA01F343EA0C0357
:1008F800F44000FA01F8380C4FEA1349B4FBF0FE53
:100908001FFA87FC00FB1E4449EA04440EFB0CF95D
:10091800A14502FA01F20AD93C190EF1FF3A80F01A
:100928008480A14540F28180AEF1020E3C44A4EBE4
:1009380009041FFA83F9B4FBF0F300FB134449EAF6
:10094800044403FB0CFCA44507D93C1903F1FF3010
:1009580067D2A44565D9023B3C4443EA0E40A0FB5C
:100968000293A4EB0C049C42CE469C4651D34ED035
:1009780055B1B8EB0E0364EB0C0404FA06F6CB4051
:100988001E43CC40C5E90064002150E7C2F12003B2
:1009980020FA03F10CFA02FC24FA03F394400C4306
:1009A8004FEA1C4800FA02FE1FFA8CF7B3FBF8F076
:1009B80008FB1031230C43EA014300FB07F199427D
:1009C80008D91CEB030300F1FF362CD299422AD92F
:1009D800023863445B1AA4B2B3FBF8F108FB113385
:1009E80044EA034401FB07F3A34208D91CEB0404BF
:1009F80001F1FF3613D2A34211D902396444E41A33
:100A080041EA004139E70446F0E6084606E7C845EA
:100A1800AED2B9EB020E63EB070C0138A8E73146FA
:100A2800EDE7034699E73046D4E7D6467FE76344C7
:100A380002384DE70646234608460FE7023E634460
:100A480030E700BF704700BFB0B5A6B002AFF8608E
:100A5800B9607A607B80FB68BA681A60FB687A685C
:100A68005A60FB687A881A82FB68D7F8A0209A60D7
:100A7800FB68B7F8A4205A82FB68D7F8A820DA6088
:100A8800FB68B7F8AC209A82FB68032283F822201F
:100A9800FB680022DA82FB6800221A837A4B07F18E
:100AA80064041D460FCD0FC40FCD0FC495E8030095
:100AB80084E803007A6EFB689A62FB68734ADA621C
:100AC800734B07F13C041D460FCD0FC40FCD0FC467
:100AD80095E8030084E80300FA6BFB681A63342086
:100AE8000AF0DAFC03461A46FB685A62002387F8C4
:100AF8008F3028E0FB685A6A97F88F309B00D4182B
:100B08000E200AF0C9FC03462360002387F88E30C4
:100B180010E0FB685A6A97F88F309B0013441A68F4
:100B280097F88E30134400221A7097F88E300133EC
:100B380087F88E3097F88E300D2BEAD997F88F30DA
:100B4800013387F88F3097F88F300C2BD2D9FB6898
:100B58005868FB681B8A0122194607F0BBF9FB6835
:100B68005868FB681B8A0022194607F0B3F9FB682E
:100B78009868FB685B8A0022194607F0ABF90520E4
:100B880006F0F4F8FB689868FB685B8A012219464E
:100B980007F0A0F901220121F86802F085F84FF466
:100BA8007A7006F0E3F801223621F86802F07CF842
:100BB800402387F8383007F1380101230122F8680B
:100BC80002F09CF80122F221F86802F06DF8032384
:100BD80087F8343007F1340101230122F86802F064
:100BE8008DF80122E021F86802F05EF8294B07F140
:100BF80024040FCB07C4238002341B0C237007F195
:100C0800240101230F22F86802F078F80122E1217B
:100C1800F86802F049F81F4B07F114040FCB07C41A
:100C2800238002341B0C237007F1140101230F22C7
:100C3800F86802F063F801221121F86802F034F82C
:100C480001222921F86802F02FF8FB685868FB6830
:100C58001B8A0122194607F03DF9FB689B6A194671
:100C6800F86800F037FF1F2300930B230F220121A0
:100C7800F86800F011F8F86800F0B8FF002318468B
:100C88009037BD46B0BD00BFA8B80008E5C07B00DE
:100C9800D0B80008F8B8000880B588B000AFF86090
:100CA800084611461A4603467B810B463B8113468C
:100CB800FB80FB685868FB681B8A0022194607F00E
:100CC80009F9FB687A895A83FB683A899A83FB6831
:100CD800FA88DA83FB683A8D1A842A23FB77FB6843
:100CE800D868FB689B8A0022194607F0F3F8FB686E
:100CF800186807F11F016423012209F024FD7B898C
:100D08001B0A9BB2DBB23B767B89DBB27B763B89E5
:100D18001B0A9BB2DBB2BB763B89DBB2FB76FB6876
:100D2800D868FB689B8A0122194607F0D3F8FB684C
:100D3800186807F118016423042209F004FD2B2325
:100D4800FB75FB68D868FB689B8A0022194607F088
:100D5800C1F8FB68186807F117016423012209F03C
:100D6800F2FCFB881B0A9BB2DBB23B74FB88DBB24C
:100D78007B743B8D1B0A9BB2DBB2BB743B8DDBB231
:100D8800FB74FB68D868FB689B8A0122194607F048
:100D9800A1F8FB68186807F110016423042209F020
:100DA800D2FCFB685868FB681B8A0122194607F0C9
:100DB80091F8002318462037BD4680BD80B588B01D
:100DC80000AFF860084611461A4603467B810B4679
:100DD8003B811346FB80FB685868FB681B8A00222E
:100DE800194607F077F8FB687A895A837A893B892C
:100DF80013449AB2FB689A83FB68FA88DA83FA8804
:100E08003B8D13449AB2FB681A842A23FB77FB684C
:100E1800D868FB689B8A0022194607F05BF8FB68D4
:100E2800186807F11F016423012209F08CFCFB6894
:100E38005B8B1B0A9BB2DBB23B76FB685B8BDBB23E
:100E48007B76FB689B8B1B0A9BB2DBB2BB76FB688D
:100E58009B8BDBB2FB76FB68D868FB689B8A012218
:100E6800194607F037F8FB68186807F1180164237A
:100E7800042209F068FC2B23FB75FB68D868FB6823
:100E88009B8A0022194607F025F8FB68186807F1C5
:100E980017016423012209F056FCFB68DB8B1B0A4F
:100EA8009BB2DBB23B74FB68DB8BDBB27B74FB6809
:100EB8001B8C1B0A9BB2DBB2BB74FB681B8CDBB2BE
:100EC800FB74FB68D868FB689B8A0122194607F007
:100ED80001F8FB68186807F110016423042209F07F
:100EE80032FCFB685868FB681B8A0122194606F029
:100EF800F1FF002318462037BD4680BD80B586B077
:100F080000AFF860B9601346FB80FB685868FB685F
:100F18001B8A0022194606F0DDFF01222C21F86801
:100F280001F0C2FE324B1B883B820023BB74BB68B6
:100F38001B681B0CDBB223F00303DBB23B74BB68FA
:100F48001B681B0ADBB223F00303DBB27B74BB68AC
:100F58001B68DBB223F00303DBB2BB7407F110019B
:100F680001230322F86801F0C9FE0123FB822EE069
:100F780001223C21F86801F097FEFB8A9B00BA68C1
:100F880013441B681B0CDBB223F00303DBB23B7476
:100F9800FB8A9B00BA6813441B681B0ADBB223F068
:100FA8000303DBB27B74FB8A9B00BA6813441B689B
:100FB800DBB223F00303DBB2BB7407F1100101239A
:100FC8000322F86801F09AFEFB8A0133FB82FA8A51
:100FD800FB889A42CCD3FB685868FB681B8A0122BD
:100FE800194606F077FF002318461837BD4680BD1E
:100FF80008B9000880B5DCB000AF07F5B873A3F5F1
:10100800B67318600A4607F5B873A3F26D131A7021
:1010180007F5B873A3F5B6731B6893F822301A4620
:1010280007F5B873A3F5B6731B6893F8223002FB73
:1010380003F38C2202FB03F318460AF02DFA034649
:10104800C7F8683107F5B873A3F26D131B78602BE6
:101058000AD907F5B873A3F26D1307F5B872A2F2AF
:101068006D121278203A1A7007F5B873A3F26D134F
:101078001B78412B0DD1B94A07F5AA7392E80300F2
:1010880018600433198002330A0C1A7007F5AA7322
:10109800ACE307F5B873A3F26D131B78422B0DD19F
:1010A800AF4A07F5A67392E8030018600433198065
:1010B80002330A0C1A7007F5A67397E307F5B8739D
:1010C800A3F26D131B78432B0DD1A64A07F5A27323
:1010D80092E8030018600433198002330A0C1A706E
:1010E80007F5A27382E307F5B873A3F26D131B78B3
:1010F800442B0DD19C4A07F59E7392E803001860B3
:101108000433198002330A0C1A7007F59E736DE3D5
:1011180007F5B873A3F26D131B78452B0DD1934ACD
:1011280007F59A7392E803001860043319800233B4
:101138000A0C1A7007F59A7358E307F5B873A3F207
:101148006D131B78462B0DD1894A07F5967392E8E3
:10115800030018600433198002330A0C1A7007F56B
:10116800967343E307F5B873A3F26D131B78472B07
:101178000DD1804A07F5927392E803001860043392
:10118800198002330A0C1A7007F592732EE307F5DB
:10119800B873A3F26D131B78482B0DD1764A07F567
:1011A8008E7392E8030018600433198002330A0C26
:1011B8001A7007F58E7319E307F5B873A3F26D1368
:1011C8001B78492B0DD16D4A07F58A7392E8030005
:1011D80018600433198002330A0C1A7007F58A73F1
:1011E80004E307F5B873A3F26D131B784A2B0DD1EE
:1011F800634A07F5867392E8030018600433198080
:1012080002330A0C1A7007F58673EFE207F5B87314
:10121800A3F26D131B784B2B0DD15A4A07F5827335
:1012280092E8030018600433198002330A0C1A701C
:1012380007F58273DAE207F5B873A3F26D131B782A
:101248004C2B0DD1504A07F1FC0392E803001860BB
:101258000433198002330A0C1A7007F1FC03C5E243
:1012680007F5B873A3F26D131B784D2B0DD1474AC0
:1012780007F1F40392E8030018600433198002337D
:101288000A0C1A7007F1F403B0E207F5B873A3F279
:101298006D131B784E2B0DD13D4A07F1EC0392E8F4
:1012A800030018600433198002330A0C1A7007F11E
:1012B800EC039BE207F5B873A3F26D131B784F2B71
:1012C8000DD1344A07F1E40392E8030018600433AF
:1012D800198002330A0C1A7007F1E40386E207F555
:1012E800B873A3F26D131B78502B0DD12A4A07F15E
:1012F800DC0392E8030018600433198002330A0CF7
:101308001A7007F1DC0371E207F5B873A3F26D13E5
:101318001B78512B0DD1214A07F1D40392E8030021
:1013280018600433198002330A0C1A7007F1D403C9
:101338005CE207F5B873A3F26D131B78522B31D119
:10134800174A07F1CC0392E80300186004331980A8
:1013580002330A0C1A7007F1CC0347E20CB90008F3
:1013680014B900081CB9000824B900082CB90008F1
:1013780034B900083CB9000844B900084CB9000861
:1013880054B900085CB9000864B900086CB90008D1
:1013980074B900087CB9000884B900088CB9000841
:1013A80094B9000807F5B873A3F26D131B78532B93
:1013B8000DD1BE4A07F1C40392E803001860043354
:1013C800198002330A0C1A7007F1C4030EE207F5FC
:1013D800B873A3F26D131B78542B0DD1B44A07F1DF
:1013E800BC0392E8030018600433198002330A0C26
:1013F8001A7007F1BC03F9E107F5B873A3F26D138E
:101408001B78552B0DD1AB4A07F1B40392E80300C2
:1014180018600433198002330A0C1A7007F1B403F8
:10142800E4E107F5B873A3F26D131B78562B0DD1C1
:10143800A14A07F1AC0392E803001860043319804D
:1014480002330A0C1A7007F1AC03CFE107F5B87341
:10145800A3F26D131B78572B0DD1984A07F1A403FB
:1014680092E8030018600433198002330A0C1A70DA
:1014780007F1A403BAE107F5B873A3F26D131B785B
:10148800582B0DD18E4A07F19C0392E8030018608F
:101498000433198002330A0C1A7007F19C03A5E182
:1014A80007F5B873A3F26D131B78592B0DD1854A34
:1014B80007F1940392E8030018600433198002339B
:1014C8000A0C1A7007F1940390E107F5B873A3F2B8
:1014D8006D131B785A2B0DD17B4A07F18C0392E8C8
:1014E800030018600433198002330A0C1A7007F1DC
:1014F8008C037BE107F5B873A3F26D131B782E2BD1
:101508000DD1724A07F1840392E80300186004338E
:10151800198002330A0C1A7007F1840366E107F593
:10152800B873A3F26D131B78202B08D107F17C0345
:1015380000221A60C3F8032007F17C0356E107F57F
:10154800B873A3F26D131B785C2B0DD1604A07F1B9
:10155800740392E8030018600433198002330A0CFC
:101568001A7007F1740341E107F5B873A3F26D131C
:101578001B787C2B0FD107F5B873A3F58273554AF6
:1015880092E8030018600433198002330A0C1A70B9
:1015980007F16C032AE107F5B873A3F26D131B7802
:1015A8002F2B0FD107F5B873A3F586734A4A92E833
:1015B800030018600433198002330A0C1A7007F10B
:1015C800640313E107F5B873A3F26D131B78302B8E
:1015D8000FD107F5B873A3F58A73404A92E8030060
:1015E80018600433198002330A0C1A7007F15C037F
:1015F800FCE007F5B873A3F26D131B78312B0FD1FC
:1016080007F5B873A3F58E73354A92E8030018609E
:101618000433198002330A0C1A7007F15403E5E009
:1016280007F5B873A3F26D131B78322B0FD107F5AA
:10163800B873A3F592732B4A92E803001860043339
:10164800198002330A0C1A7007F14C03CEE007F533
:10165800B873A3F26D131B78332B0FD107F5B8734A
:10166800A3F59673204A92E80300186004331980A2
:1016780002330A0C1A7007F14403B7E007F5B87390
:10168800A3F26D131B78342B32D107F5B873A3F589
:101698009A73164A92E803001860043319800233DB
:1016A8000A0C1A7007F13C03A0E000BF9CB90008BF
:1016B800A4B90008ACB90008B4B90008BCB900085E
:1016C800C4B90008CCB90008D4B90008DCB90008CE
:1016D800E4B90008ECB90008F4B90008FCB900083E
:1016E80004BA00080CBA000814BA00081CBA0008AA
:1016F80007F5B873A3F26D131B78352B0FD107F5D7
:10170800B873A3F59E73C14A92E8030018600433C6
:10171800198002330A0C1A7007F1340366E007F5E2
:10172800B873A3F26D131B78362B0FD107F5B87376
:10173800A3F5A273B64A92E803001860043319802F
:1017480002330A0C1A7007F12C034FE007F5B8733F
:10175800A3F26D131B78372B0FD107F5B873A3F5D8
:10176800A673AC4A92E80300186004331980023368
:101778000A0C1A7007F1240338E007F5B873A3F2CE
:101788006D131B78382B0FD107F5B873A3F5AA731F
:10179800A14A92E8030018600433198002330A0C46
:1017A8001A7007F11C0321E007F5B873A3F26D1353
:1017B8001B78392B0FD107F5B873A3F5AE73974A89
:1017C80092E8030018600433198002330A0C1A7077
:1017D80007F114030AE007F5B873A3F5B2731A46C4
:1017E80000231360C2F8033007F10C0307F5AE724B
:1017F8001868106099889B7991809371002387F805
:101808006F31ABE007F5B873A3F5B6731B6893F8AF
:1018180022301A469200134487F86E3194E007F597
:10182800B873A3F5B6731B6893F8223097F86F2145
:10183800B2FBF3F3DBB21846FEF77CFE02460B461A
:1018480010461946FEF768FF034687F8673197F890
:101858006E3107EE903AB8EE677A07F5B873A3F5DC
:10186800B6731B6893F8223007EE903AF8EE677A61
:10187800C7EE276A16EE900AFEF76EFE02460B4682
:1018880043EC102B09F084FF51EC100B4FF00002D1
:10189800634BFEF701FD02460B4610461946FEF75C
:1018A8003BFF034687F8663197F8673103F5B8734D
:1018B8003B4413F8143C1A4697F8663142FA03F38E
:1018C80003F00103002B1DD097F86F31013307F5A2
:1018D800B872A2F5B672126892F8222003FB02F2DF
:1018E80013469B001A4497F86E31D31A9B00D7F819
:1018F8006821134407F5B872A2F5B6721268D26A65
:101908001A601CE097F86F31013307F5B872A2F539
:10191800B672126892F8222003FB02F213469B006B
:101928001A4497F86E31D31A9B00D7F868211344EC
:1019380007F5B872A2F5B6721268926A1A6097F83B
:101948006E31013B87F86E3197F86E31002B7FF4CA
:1019580066AF97F86F31013387F86F3197F86F21C9
:1019680007F5B873A3F5B6731B6893F822301946C8
:101978000B46DB005B1A9A42FFF644AF07F5B873D3
:10198800A3F5B6731B6893F822301A4607F5B873A7
:10199800A3F5B6731B6893F8223012FB03F39BB2CE
:1019A8001A46920013441A46D200D31A9AB207F57F
:1019B800B873A3F5B673D7F868111868FFF79EFADD
:1019C800D7F8680109F070FD07F5B873A3F5B67389
:1019D8001B685A6A07F5B873A3F5B6731B681B8BA7
:1019E8009B0013441B6807F5B872A2F5B67212681B
:1019F800D28A134407F5B872A2F26D1212781A70DF
:101A08000023184607F5B877BD4680BD24BA0008FC
:101A18002CBA000834BA00083CBA000844BA0008D6
:101A28000000F03F90B585B002AF7860786800F0AC
:101A3800C6F97B68DB8A002B11D17B680D22DA821C
:101A48007B681B8B002B03D17B680C221A830CE06C
:101A58007B681B8B013B9AB27B681A8305E07B6825
:101A6800DB8A013B9AB27B68DA827B68DB8A1A469A
:101A7800120113449BB2013399B27B6893F8223068
:101A88001A46920013449BB2013B9AB27B681B8BA7
:101A9800184640001844C000C31A9BB20B3398B2D2
:101AA8007B6893F822301C46E400E31A9BB2013BA2
:101AB8009BB2009303467868FFF780F92021786885
:101AC800FFF798FA786800F091F8002318460C3769
:101AD800BD4690BD80B588B002AF786039607B683C
:101AE80058687B681B8A0022194606F0F3F97B6860
:101AF8005B8B7B827B689B8B3B827B68DB8BFB8170
:101B08007B681B8CBB8140F23F1300930023EF22BC
:101B180000217868FFF7C0F87B6858687B681B8AE3
:101B28000022194606F0D6F901222C21786801F026
:101B3800BBF83B681B0CDBB223F00303DBB23B7240
:101B48003B681B0ADBB223F00303DBB27B723B6802
:101B5800DBB223F00303DBB2BB727B68D8687B6817
:101B68009B8A0122194606F0B5F90123FB8214E08D
:101B78000023BB820AE07B68186807F10801642328
:101B8800032208F0E0FDBB8A0133BB82BB8AB3F5B0
:101B9800A07FF0D9FB8A0133FB82FB8AF02BE7D9BF
:101BA8007B6858687B681B8A0122194606F092F9FF
:101BB8007B687A8A5A837B683A8A9A837B68FA892F
:101BC800DA837B68BA891A847B68598B7B689A8B1D
:101BD8007B68D88B7B681B8C009303467868FFF77B
:101BE8005BF8002318461837BD4680BD80B588B01D
:101BF80002AF78607B6858687B681B8A00221946A8
:101C080006F068F97B685B8BBB827B689B8B7B8269
:101C18007B68DB8B3B827B681B8CFB817B685B8BE7
:101C2800013B99B27B689B8B01339AB27B681B8C12
:101C3800013398B27B681B8C02339BB20093034636
:101C48007868FFF729F87B6858687B681B8A002248
:101C5800194606F03FF901222C21786801F024F892
:101C68007B681B6B1B0CDBB223F00303DBB23B72FC
:101C78007B681B6B1B0ADBB223F00303DBB27B72AE
:101C88007B681B6BDBB223F00303DBB2BB727B68A0
:101C9800D8687B689B8A0122194606F01BF9002345
:101CA800FB750AE07B68186807F1080164230322C2
:101CB80008F049FDFB7D0133FB75FA7D7B689B8B42
:101CC80019467B685B8BCB1A9A42EBDB7B685868BA
:101CD8007B681B8A0122194606F0FCF87B68BA8AE1
:101CE8005A837B687A8A9A837B683A8ADA837B6824
:101CF800FA891A847B68598B7B689A8B7B68D88BA6
:101D08007B681B8C009303467868FEF7C5FF0023A9
:101D180018461837BD4680BD90B585B002AF7860CB
:101D2800786800F04CF87B68DB8A0D2B11D17B6852
:101D38000022DA827B681B8B0C2B03D17B68002284
:101D48001A830CE07B681B8B01339AB27B681A8379
:101D580005E07B68DB8A01339AB27B68DA827B68AC
:101D6800DB8A1A46120113449BB2013399B27B688D
:101D780093F822301A46920013449BB2013B9AB260
:101D88007B681B8B184640001844C000C31A9BB2DE
:101D98000B3398B27B6893F822301C46E400E31AB0
:101DA8009BB2013B9BB2009303467868FFF706F8A5
:101DB8007868FFF71BFF00BF0C37BD4690BD80B5A4
:101DC80088B002AF78607B6858687B681B8A0022FD
:101DD800194606F07FF87B685B8BBB827B689B8B20
:101DE8007B827B68DB8B3B827B681B8CFB817B68FF
:101DF8005B8B013B99B27B689B8B01339AB27B6802
:101E08001B8C013398B27B681B8C02339BB2009306
:101E180003467868FEF740FF7B6858687B681B8A32
:101E28000022194606F056F801222C21786800F0A5
:101E38003BFF7B689B6A1B0CDBB223F00303DBB21E
:101E48003B727B689B6A1B0ADBB223F00303DBB29D
:101E58007B727B689B6ADBB223F00303DBB2BB7245
:101E68007B68D8687B689B8A0122194606F032F89D
:101E78000023FB750AE07B68186807F108016423F2
:101E8800032208F060FCFB7D0133FB75FA7D7B685B
:101E98009B8B19467B685B8BCB1A9A42EBDB7B6882
:101EA80058687B681B8A0122194606F013F87B687C
:101EB800BA8A5A837B687A8A9A837B683A8ADA83F1
:101EC8007B68FA891A847B68598B7B689A8B7B6854
:101ED800D88B7B681B8C009303467868FEF7DCFE82
:101EE800002318461837BD4680BD90B585B002AFAF
:101EF80078607868FFF763FF7B6800221A835AE0EE
:101F08007B680022DA824CE07B685A6A7B681B8B0C
:101F18009B0013441B687A68D28A13441B78002BF1
:101F280039D07B685A6A7B681B8B9B0013441B68FB
:101F38007A68D28A13441B78202B2CD07B68DB8AE2
:101F48001A46120113449BB2013399B27B6893F885
:101F580022301A46920013449BB2013B9AB27B6826
:101F68001B8B184640001844C000C31A9BB20B33A1
:101F780098B27B6893F822301C46E400E31A9BB2BF
:101F8800013B9BB2009303467868FEF717FF2021B8
:101F98007868FFF72FF87B68DB8A01339AB27B6891
:101FA800DA827B68DB8A0D2BAED97B681B8B013309
:101FB8009AB27B681A837B681B8B0C2BA0D91F23D2
:101FC80000930B230F2201217868FEF765FE7B68DA
:101FD8000022DA827B6800221A837868FFF706FEFF
:101FE800002318460C37BD4690BD000080B5DEB012
:101FF80002AF07F5B873A3F5B673186007F5B873A1
:10200800A3F5B8731960002387F86F3100F046BD57
:102018008C2009F041FA0346C7F8683197F86F3108
:1020280007F5B872A2F5B872126813441B78602BD2
:1020380013D997F86F3107F5B872A2F5B87212681C
:1020480013441A7897F86F3107F5B871A1F5B8718C
:1020580009680B44203AD2B21A7097F86F3107F525
:10206800B872A2F5B872126813441B78412B0ED1CE
:10207800B74A07F5AA7392E8030018600433198079
:1020880002330A0C1A7007F5AA7300F043BC97F8DC
:102098006F3107F5B872A2F5B872126813441B784D
:1020A800422B0ED1AB4A07F5A67392E803001860DD
:1020B8000433198002330A0C1A7007F5A67300F06E
:1020C80029BC97F86F3107F5B872A2F5B872126893
:1020D80013441B78432B0ED19F4A07F5A27392E84D
:1020E800030018600433198002330A0C1A7007F5CC
:1020F800A27300F00FBC97F86F3107F5B872A2F51C
:10210800B872126813441B78442B0DD1934A07F513
:102118009E7392E8030018600433198002330A0C96
:102128001A7007F59E73F5E397F86F3107F5B872E3
:10213800A2F5B872126813441B78452B0DD1884A52
:1021480007F59A7392E80300186004331980023384
:102158000A0C1A7007F59A73DCE397F86F3107F5E4
:10216800B872A2F5B872126813441B78462B0DD1C9
:102178007C4A07F5967392E80300186004331980C7
:1021880002330A0C1A7007F59673C3E397F86F3198
:1021980007F5B872A2F5B872126813441B78472B7A
:1021A8000DD1714A07F5927392E803001860043361
:1021B800198002330A0C1A7007F59273AAE397F88C
:1021C8006F3107F5B872A2F5B872126813441B781C
:1021D800482B0DD1654A07F58E7392E80300186005
:1021E8000433198002330A0C1A7007F58E7391E3D1
:1021F80097F86F3107F5B872A2F5B87212681344F0
:102208001B78492B0DD15A4A07F58A7392E80300C7
:1022180018600433198002330A0C1A7007F58A73A0
:1022280078E397F86F3107F5B872A2F5B8721268BB
:1022380013441B784A2B0DD14E4A07F5867392E852
:10224800030018600433198002330A0C1A7007F56A
:1022580086735FE397F86F3107F5B872A2F5B87225
:10226800126813441B784B2B0DD1434A07F5827330
:1022780092E8030018600433198002330A0C1A70BC
:1022880007F5827346E397F86F3107F5B872A2F540
:10229800B872126813441B784C2B0DD1374A07F1DA
:1022A800FC0392E8030018600433198002330A0C17
:1022B8001A7007F1FC032DE397F86F3107F5B87230
:1022C800A2F5B872126813441B784D2B0DD12C4A15
:1022D80007F1F40392E8030018600433198002330D
:1022E8000A0C1A7007F1F40314E397F86F3107F535
:1022F800B872A2F5B872126813441B784E2B0DD130
:10230800204A07F1EC0392E80300186004331980AF
:1023180002330A0C1A7007F1EC03FBE297F86F31ED
:1023280007F5B872A2F5B872126813441B784F2BE0
:102338002CD1154A07F1E40392E80300186004332E
:10234800198002330A0C1A7007F1E403E2E200BFB5
:102358000CB9000814B900081CB9000824B9000811
:102368002CB9000834B900083CB9000844B9000881
:102378004CB9000854B900085CB9000864B90008F1
:102388006CB9000874B900087CB9000897F86F3177
:1023980007F5B872A2F5B872126813441B78502B6F
:1023A8000DD1B44A07F1DC0392E803001860043346
:1023B800198002330A0C1A7007F1DC03AAE297F8B5
:1023C8006F3107F5B872A2F5B872126813441B781A
:1023D800512B0DD1A84A07F1D40392E803001860E5
:1023E8000433198002330A0C1A7007F1D40391E2FE
:1023F80097F86F3107F5B872A2F5B87212681344EE
:102408001B78522B0DD19D4A07F1CC0392E80300AB
:1024180018600433198002330A0C1A7007F1CC03D0
:1024280078E297F86F3107F5B872A2F5B8721268BA
:1024380013441B78532B0DD1914A07F1C40392E83A
:10244800030018600433198002330A0C1A7007F16C
:10245800C4035FE297F86F3107F5B872A2F5B87256
:10246800126813441B78542B0DD1864A07F1BC031C
:1024780092E8030018600433198002330A0C1A70BA
:1024880007F1BC0346E297F86F3107F5B872A2F579
:10249800B872126813441B78552B0DD17A4A07F18C
:1024A800B40392E8030018600433198002330A0C5D
:1024B8001A7007F1B4032DE297F86F3107F5B87277
:1024C800A2F5B872126813441B78562B0DD16F4AC7
:1024D80007F1AC0392E80300186004331980023353
:1024E8000A0C1A7007F1AC0314E297F86F3107F57C
:1024F800B872A2F5B872126813441B78572B0DD125
:10250800634A07F1A40392E80300186004331980B2
:1025180002330A0C1A7007F1A403FBE197F86F3134
:1025280007F5B872A2F5B872126813441B78582BD5
:102538000DD1584A07F19C0392E803001860043350
:10254800198002330A0C1A7007F19C03E2E197F82C
:102558006F3107F5B872A2F5B872126813441B7888
:10256800592B0DD14C4A07F1940392E803001860E7
:102578000433198002330A0C1A7007F19403C9E175
:1025880097F86F3107F5B872A2F5B872126813445C
:102598001B785A2B0DD1414A07F18C0392E80300AE
:1025A80018600433198002330A0C1A7007F18C037F
:1025B800B0E197F86F3107F5B872A2F5B8721268F2
:1025C80013441B782E2B0DD1354A07F1840392E86A
:1025D800030018600433198002330A0C1A7007F1DB
:1025E800840397E197F86F3107F5B872A2F5B872CE
:1025F800126813441B78202B08D107F17C030022B2
:102608001A60C3F8032007F17C0383E197F86F3160
:1026180007F5B872A2F5B872126813441B785C2BE0
:102628000DD1204A07F1740392E8030018600433BF
:10263800198002330A0C1A7007F174036AE197F8DB
:102648006F3107F5B872A2F5B872126813441B7897
:102658007C2B2BD107F5B873A3F58273124A92E845
:10266800030018600433198002330A0C1A7007F14A
:102678006C034FE184B900088CB9000894B90008CC
:102688009CB90008A4B90008ACB90008B4B900089E
:10269800BCB90008C4B90008CCB90008D4B900080E
:1026A800DCB90008E4B90008ECB9000897F86F3104
:1026B80007F5B872A2F5B872126813441B782F2B6D
:1026C8000FD107F5B873A3F58673C04A92E80300E3
:1026D80018600433198002330A0C1A7007F1640376
:1026E80018E197F86F3107F5B872A2F5B872126859
:1026F80013441B78302B0FD107F5B873A3F58A73F1
:10270800B34A92E8030018600433198002330A0CB4
:102718001A7007F15C03FDE097F86F3107F5B8729E
:10272800A2F5B872126813441B78312B0FD107F544
:10273800B873A3F58E73A74A92E8030018600433B0
:10274800198002330A0C1A7007F15403E2E097F873
:102758006F3107F5B872A2F5B872126813441B7886
:10276800322B0FD107F5B873A3F592739A4A92E802
:10277800030018600433198002330A0C1A7007F139
:102788004C03C7E097F86F3107F5B872A2F5B87235
:10279800126813441B78332B0FD107F5B873A3F5D0
:1027A80096738E4A92E80300186004331980023346
:1027B8000A0C1A7007F14403ACE097F86F3107F57B
:1027C800B872A2F5B872126813441B78342B0FD173
:1027D80007F5B873A3F59A73814A92E80300186065
:1027E8000433198002330A0C1A7007F13C0391E094
:1027F80097F86F3107F5B872A2F5B87212681344EA
:102808001B78352B0FD107F5B873A3F59E73754A5E
:1028180092E8030018600433198002330A0C1A7016
:1028280007F1340376E097F86F3107F5B872A2F52F
:10283800B872126813441B78362B0FD107F5B8739A
:10284800A3F5A273684A92E803001860043319805C
:1028580002330A0C1A7007F12C035BE097F86F310A
:1028680007F5B872A2F5B872126813441B78372BB3
:102878000FD107F5B873A3F5A6735C4A92E8030075
:1028880018600433198002330A0C1A7007F1240304
:1028980040E097F86F3107F5B872A2F5B872126880
:1028A80013441B78382B0FD107F5B873A3F5AA7317
:1028B8004F4A92E8030018600433198002330A0C67
:1028C8001A7007F11C0325E097F86F3107F5B87205
:1028D800A2F5B872126813441B78392B0FD107F58B
:1028E800B873A3F5AE73434A92E803001860043343
:1028F800198002330A0C1A7007F114030AE007F56D
:10290800B873A3F5B2731A4600231360C2F80330F4
:1029180007F10C0307F5AE721868106099889B7967
:1029280091809371002387F86E318AE0052387F838
:102938006D317CE097F86E311846FDF7FBFD0246D5
:102948000B4610461946FDF7E7FE034687F8673140
:1029580097F86D3107EE903AF8EE677A17EE900A1D
:10296800FDF7FAFD4FF00002234BFDF795FC0246F8
:102978000B4610461946FDF7CFFE034687F8663129
:1029880097F8673103F5B8733B4413F8143C1A46BB
:1029980097F8663142FA03F303F00103002B2DD0B8
:1029A80097F86E315A1C13469B001A4497F86D31FC
:1029B800D31A9B00D7F86821134407F5B872A2F51B
:1029C800B6721268D26A1A602CE000BFF4B9000827
:1029D800FCB9000804BA00080CBA000814BA0008C8
:1029E8001CBA000824BA00082CBA000834BA000837
:1029F8003CBA000844BA00080000F03F97F86E316E
:102A08005A1C13469B001A4497F86D31D31A9B0041
:102A1800D7F86821134407F5B872A2F5B6721268A0
:102A2800926A1A6097F86D31013B87F86D3197F813
:102A38006D31002B7FF47EAF97F86E31013387F844
:102A48006E3197F86E31062B7FF670AF07F5B873C5
:102A5800A3F5B6732322D7F868111868FEF74EFA63
:102A6800D7F8680108F020FD97F86F31013387F82F
:102A78006F3197F86F319BB21A46D200D31A9BB2C6
:102A8800013399B207F5B873A3F5B670062300931E
:102A98004FF49B7304220068FEF790F997F86F31A2
:102AA80007F5B872A2F5B872126813441B78002BA8
:102AB8000BD097F86F3107F5B872A2F5B8721268A3
:102AC80013441B780A2B7FF4A3AA0023184607F5A2
:102AD800B877BD4680BD00BF80B588B002AF7860CA
:102AE8007B6893F82230FB757B685B8BBB827B68C5
:102AF8009B8B7B827B68DB8B3B827B681B8CFB819F
:102B08004FF49E7300934FF49B730522012178685C
:102B1800FEF7C2F80A2008F0BFFC0346BB600A2291
:102B28001449B86808F0BAFDB9687868FFF75EFA22
:102B38007B68FA7D83F822207B68BA8A5A837B688F
:102B48007A8A9A837B683A8ADA837B68FA891A8454
:102B58007B68598B7B689A8B7B68D88B7B681B8CCE
:102B6800009303467868FEF797F80023184618374D
:102B7800BD4680BD4CBA000880B588B002AF786009
:102B88000B46FB707B6893F82230FB757B685B8B88
:102B9800BB827B689B8B7B827B68DB8B3B827B6801
:102BA8001B8CFB814FF49E7300934FF49B7305229B
:102BB80001217868FEF770F80A2008F06DFC0346DA
:102BC800BB60FB78002B05D106223049B86808F0B5
:102BD80065FD34E0FB78012B05D106222C49B86845
:102BE80008F05CFD2BE0FB78022B05D10622294971
:102BF800B86808F053FD22E0FB78032B05D10422C6
:102C08002549B86808F04AFD19E0FB78042B05D17E
:102C180004222249B86808F041FD10E0FB78052B32
:102C280005D104221E49B86808F038FD07E0FB7892
:102C3800062B04D104221B49B86808F02FFDB96897
:102C48007868FFF7D3F97B68FA7D83F822207B68E0
:102C5800BA8A5A837B687A8A9A837B683A8ADA8343
:102C68007B68FA891A847B68598B7B689A8B7B68A6
:102C7800D88B7B681B8C009303467868FEF70CF8AA
:102C8800002318461837BD4680BD00BF58BA000853
:102C980060BA000868BA000870BA000874BA000878
:102CA80078BA00087CBA000880B582B000AF7860B6
:102CB8000B46FB701346BB70BB7883F00103DBB295
:102CC800002B07D07B6858687B681B8A002219464E
:102CD80005F000F97B68D8687B689B8A0022194652
:102CE80005F0F8F87B681868F91C6423012207F0DE
:102CF8002AFD002318460837BD4680BD80B584B03C
:102D080000AFF860B96011461A460B46FB711346CE
:102D1800BB71BB7983F00103DBB2002B07D0FB68E2
:102D28005868FB681B8A0022194605F0D3F8FB682F
:102D3800D868FB689B8A0122194605F0CBF8FB6826
:102D4800186864230422B96807F0FDFC00231846BC
:102D58001037BD4680BD80B584B000AF786039605B
:102D68007B683A681A607B6800229A727B68002246
:102D7800DA727B6800221A730023BB7307F10E0214
:102D880001234321786800F0A8F80346002B04D0FB
:102D9800BB7B252B01D001235DE00023FB730122BF
:102DA8000521786800F07DF80346FB73FB7B002B58
:102DB80001D0FB7B4FE008222921786800F071F8E8
:102DC8000346FB73FB7B002B01D0FB7B43E04222D5
:102DD8002521786800F065F80346FB73FB7B002B20
:102DE80001D0FB7B37E001222621786800F059F8F2
:102DF8000346FB73FB7B002B01D0FB7B2BE04222BD
:102E08002721786800F04DF80346FB73FB7B002B05
:102E180001D0FB7B1FE001222821786800F041F8EF
:102E28000346FB73FB7B002B01D0FB7B13E00122E5
:102E38004021786800F035F80346FB73FB7B002BD4
:102E480001D0FB7B07E020220421786800F029F8F4
:102E58000346FB73FB7B18461037BD4680BD80B424
:102E680085B000AF78607B68DB7AFB737B680022F3
:102E7800DA72FB7B18461437BD465DF8047B704751
:102E880080B485B000AF78607B681B7BFB737B6880
:102E980000221A73FB7B18461437BD465DF8047B85
:102EA800704780B586B002AF78600B46FB7013465A
:102EB800BB70FB783B73BB787B737B68186807F142
:102EC8000C024FF0FF33009302234A2105F084F9E6
:102ED800034618461037BD4680BD80B588B002AF9E
:102EE800F8607A601A460B46FB721346BB72FB68A1
:102EF800186807F10B026423009301234A2105F0A7
:102F08006BF90346FB75FB681868BB7A9BB26422B1
:102F180000927A684B2105F05DFA0346FB75FB7D4C
:102F280018461837BD4680BD80B5A0B000AF7860A0
:102F380039607B681B88BB66BB6E9B003A6813448C
:102F48007B677B685B683B673B687B667B6F3B6640
:102F5800BB6E5B08BB66BB6E9B003A681344FB679D
:102F6800BB6E9B007A6F1344BB67BB6E9B08FB6606
:102F7800B6E13B681B68BB633B685B68FB633B6807
:102F88009B683B643B68DB687B647B6F1B68BB6248
:102F98007B6F5B68FB627B6F9B683B637B6FDB6867
:102FA8007B63FB6F1B68BB61FB6F5B68FB61FB6F3F
:102FB8009B683B62FB6FDB687B62BB6F1B68BB6017
:102FC800BB6F5B68FB60BB6F9B683B61BB6FDB687B
:102FD8007B6197ED0E7AD7ED0A7A3B681A1D3A6045
:102FE80077EE277AC3ED007A97ED0F7AD7ED0B7A53
:102FF8003B681A1D3A6077EE277AC3ED007A97EDA1
:10300800107AD7ED0C7A3B681A1D3A6077EE277A6A
:10301800C3ED007A97ED117AD7ED0D7A3B681A1D4A
:103028003A6077EE277AC3ED007A97ED0E7AD7EDFE
:103038000A7A77EE677AC7ED0A7A97ED0F7AD7EDB5
:103048000B7A77EE677AC7ED0B7A97ED107AD7EDA2
:103058000C7A77EE677AC7ED0C7A97ED117AD7ED8F
:103068000D7A77EE677AC7ED0D7A97ED067AD7ED88
:10307800027AFB6F1A1DFA6777EE277AC3ED007A9A
:1030880097ED077AD7ED037AFB6F1A1DFA6777EE8B
:10309800277AC3ED007A97ED087AD7ED047AFB6FAB
:1030A8001A1DFA6777EE277AC3ED007A97ED097A49
:1030B800D7ED057AFB6F1A1DFA6777EE277AC3ED0D
:1030C800007A97ED027AD7ED067A77EE677AC7ED40
:1030D800027A97ED037AD7ED077A77EE677AC7ED2C
:1030E800037A97ED047AD7ED087A77EE677AC7ED19
:1030F800047A97ED057AD7ED097A77EE677AC7ED06
:10310800057A3B6F1A1D3A671B68FB653B6F1A1DF2
:103118003A671B68BB65D7ED0A7A97ED177A67EEB1
:10312800277AC7ED157AD7ED0B7A97ED167A67EE01
:10313800277AC7ED147AD7ED0B7A97ED177A67EEF1
:10314800277AC7ED137AD7ED0A7A97ED167A67EEE4
:10315800277AC7ED127A7B6F1A1D7A6797ED157A71
:10316800D7ED147A77EE277AC3ED007A7B6F1A1DB4
:103178007A6797ED137AD7ED127A77EE677AC3ED0F
:10318800007AD7ED027A97ED167A67EE277AC7EDBF
:10319800157AD7ED037A97ED177A67EE277AC7ED98
:1031A800147AD7ED037A97ED167A67EE277AC7ED8A
:1031B800137AD7ED027A97ED177A67EE277AC7ED7B
:1031C800127ABB6F1A1DBA6797ED157AD7ED147A84
:1031D80077EE677AC3ED007ABB6F1A1DBA6797ED71
:1031E800137AD7ED127A77EE277AC3ED007A3B6F20
:1031F8001A1D3A671B68FB653B6F1A1D3A671B6807
:10320800BB65D7ED0C7A97ED177A67EE277AC7ED8D
:10321800157AD7ED0D7A97ED167A67EE277AC7ED0E
:10322800147AD7ED0D7A97ED177A67EE277AC7EDFE
:10323800137AD7ED0C7A97ED167A67EE277AC7EDF1
:10324800127A7B6F1A1D7A6797ED157AD7ED147A83
:1032580077EE277AC3ED007A7B6F1A1D7A6797EDB0
:10326800137AD7ED127A77EE677AC3ED007AD7ED45
:10327800047A97ED167A67EE277AC7ED157AD7EDB7
:10328800057A97ED177A67EE277AC7ED147AD7EDA6
:10329800057A97ED167A67EE277AC7ED137AD7ED98
:1032A800047A97ED177A67EE277AC7ED127ABB6F23
:1032B8001A1DBA6797ED157AD7ED147A77EE677A03
:1032C800C3ED007ABB6F1A1DBA6797ED137AD7ED75
:1032D800127A77EE277AC3ED007AFB6E013BFB6624
:1032E800FB6E002B7FF445AEBB6E99B27B685A68C3
:1032F8000223786E00F0F6FEBB6E99B27B685A68BE
:103308000223386E00F0EEFE00BF8037BD4680BD58
:1033180080B5ACB000AF786039607B681B885B080B
:103328009BB2C7F88030D7F880309B003A681344C6
:10333800C7F89030D7F880309B00D7F89020134416
:10334800C7F88C30D7F880309B00D7F88C2013440E
:10335800C7F888303B68FB67D7F89030BB67D7F869
:103368008C307B67D7F888303B67D7F89030043BC0
:10337800C7F8AC30D7F88C30043BC7F8A830D7F87A
:103388008830043BC7F8A430D7F880309B00D7F8C2
:10339800A4201344C7F8A0307B685B68C7F8943052
:1033A800D7F89430C7F89830D7F89830C7F89C30D9
:1033B800D7F880305B08C7F880300223FB66042307
:1033C800BB6606237B663B6893ED007AD7F88C30A2
:1033D800D3ED007A77EE277AC7ED187A3B6893ED3C
:1033E800007AD7F88C30D3ED007A77EE677AC7ED9C
:1033F800177A3B68043393ED007AD7F88C3004339E
:10340800D3ED007A77EE277AC7ED167A3B68043356
:1034180093ED007AD7F88C300433D3ED007A77EE49
:10342800677AC7ED157AD7F89030043393ED007AB0
:10343800D7ED177A37EE277AD7F888300433D3EDEB
:10344800007A77EE677AC7ED0B7AD7F89030D3ED2C
:10345800007A97ED157A37EE677AD7F88830D3ED8A
:10346800007A77EE277AC7ED0C7AD7F89030D3ED4B
:10347800007A97ED187A37EE677AD7F88830D3ED67
:10348800007A77EE677AC7ED077AD7F89030043379
:10349800D3ED007A97ED167A37EE677AD7F8883049
:1034A8000433D3ED007A77EE677AC7ED087AD7F858
:1034B80090300433D3ED007A97ED177A37EE677AB8
:1034C800D7F888300433D3ED007A77EE277AC7ED42
:1034D800037AD7F8903093ED007AD7ED157A37EE66
:1034E800277AD7F88830D3ED007A77EE677AC7ED78
:1034F800047AD7F8903093ED007AD7ED187A37EE42
:10350800277AD7F88830D3ED007A3B681A1D3A60DD
:1035180077EE277AC3ED007AD7F89030043393ED2D
:10352800007AD7ED167A37EE277AD7F88830043341
:10353800D3ED007A3B681A1D3A6077EE277AC3ED1F
:10354800007AD7F890301A1DC7F89020FA6A1A60E6
:10355800D7F890301A1DC7F890203A6B1A60D7F840
:103568008C301A1DC7F88C20FA691A60D7F88C308D
:103578001A1DC7F88C203A6A1A60D7F888301A1DC5
:10358800C7F88820FA681A60D7F888301A1DC7F873
:1035980088203A691A60FB6E9B00D7F89C20134478
:1035A800C7F89C30BB6E9B00D7F898201344C7F827
:1035B80098307B6E9B00D7F894201344C7F894305A
:1035C800D7F88030023B5B08C7F884301CE33B68BF
:1035D80093ED007AD7F88C30D3ED007A77EE277A1E
:1035E800C7ED187A3B6893ED007AD7F88C30D3EDA5
:1035F800007A77EE677AC7ED177A3B68043393ED64
:10360800007AD7F88C300433D3ED007A77EE277A36
:10361800C7ED167A3B68043393ED007AD7F88C30FF
:103628000433D3ED007A77EE677AC7ED157AD7F8C9
:103638009030043393ED007AD7ED177A37EE277A76
:10364800D7F888300433D3ED007A77EE677AC7ED80
:103658000B7AD7F89030D3ED007A97ED157A37EEDC
:10366800677AD7F88830D3ED007A77EE277AC7EDF6
:103678000C7AD7F89030D3ED007A97ED187A37EEB8
:10368800677AD7F88830D3ED007A77EE677AC7ED96
:10369800077AD7F890300433D3ED007A97ED167A8D
:1036A80037EE677AD7F888300433D3ED007A77EEAF
:1036B800677AC7ED087AD7F890300433D3ED007AEB
:1036C80097ED177A37EE677AD7F888300433D3ED59
:1036D800007A77EE277AC7ED037AD7F8903093ED22
:1036E800007AD7ED157A37EE277AD7F88830D3EDF8
:1036F800007A77EE677AC7ED047AD7F8903093EDC1
:10370800007AD7ED187A37EE277AD7F88830D3EDD4
:10371800007A3B681A1D3A6077EE277AC3ED007A83
:10372800D7F89030043393ED007AD7ED167A37EE58
:10373800277AD7F888300433D3ED007A3B681A1D0E
:103748003A6077EE277AC3ED007AD7F8AC30043BBD
:1037580093ED007AD7F8A430043BD3ED007A77EEE6
:10376800277AC7ED167AD7F8AC30043B93ED007A88
:10377800D7F8A430043BD3ED007A77EE677AC7ED2B
:10378800157AD7F8AC3093ED007AD7F8A430D3ED9A
:10379800007A77EE277AC7ED187AD7F8AC3093ED30
:1037A800007AD7F8A430D3ED007A77EE677AC7EDC0
:1037B800177AD7F8A83093ED007AD7F8A030D3ED70
:1037C800007A37EE677AD7ED157A77EE277AC7ED64
:1037D8000D7AD7F8AC3093ED007AD7F8A430D3ED52
:1037E800007A37EE677AD7F8A830043BD3ED007A31
:1037F80037EE677AD7F8A030043BD3ED007A77EE3E
:10380800277AC7ED0E7AD7F8A830043BD3ED007AB3
:1038180097ED167A37EE677AD7F8A030043BD3EDE8
:10382800007A77EE677AC7ED097AD7F8A830D3ED32
:10383800007A97ED187A37EE677AD7F8A030D3ED8B
:10384800007A77EE677AC7ED0A7AD7F8A83093ED51
:10385800007AD7F8A030D3ED007A37EE677AD7ED43
:10386800157A77EE677AC7ED057AD7F8A030043B6A
:1038780093ED007AD7F8A830043BD3ED007A37EE01
:10388800677AD7ED177A77EE677AC7ED067AD7F8B1
:10389800A83093ED007AD7ED187A37EE277AD7F863
:1038A800A030D3ED007AD7F8AC301A1FC7F8AC2097
:1038B80077EE277AC3ED007AD7F8A830043B93ED6A
:1038C800007AD7ED167A37EE277AD7F8A030043B7E
:1038D800D3ED007AD7F8AC301A1FC7F8AC2077EED2
:1038E800277AC3ED007AD7F89C301A1DC7F89C20B8
:1038F8001B683B65D7F89C301A1DC7F89C201B68CD
:10390800FB64D7ED0B7A97ED147A67EE277AC7ED4B
:10391800127AD7ED0C7A97ED137A67EE277AC7ED0E
:10392800117AD7ED0C7A97ED147A67EE277AC7EDFE
:10393800107AD7ED0B7A97ED137A67EE277AC7EDF1
:103948000F7AD7F890301A1DC7F8902097ED127AA1
:10395800D7ED117A77EE277AC3ED007AD7F8903051
:103968001A1DC7F8902097ED107AD7ED0F7A77EEE9
:10397800677AC3ED007AD7ED0E7A97ED137A67EE82
:10398800277AC7ED127AD7ED0D7A97ED147A67EE9C
:10399800277AC7ED117AD7ED0D7A97ED137A67EE8E
:1039A800277AC7ED107AD7ED0E7A97ED147A67EE7D
:1039B800277AC7ED0F7AD7F8A8301A1FC7F8A820BA
:1039C80097ED127AD7ED117A77EE677AC3ED007A20
:1039D800D7F8A8301A1FC7F8A82097ED107AD7EDA6
:1039E8000F7A77EE277AC3ED007AD7F898301B68FC
:1039F8003B65D7F8983004331B68FB64BB6E9B00AB
:103A0800D7F898201344C7F89830D7ED077A97ED80
:103A1800147A67EE277AC7ED127AD7ED087A97ED10
:103A2800137A67EE277AC7ED117AD7ED087A97ED02
:103A3800147A67EE277AC7ED107AD7ED077A97EDF3
:103A4800137A67EE277AC7ED0F7AD7F88C301A1DEC
:103A5800C7F88C2097ED127AD7ED117A77EE277A8E
:103A6800C3ED007AD7F88C301A1DC7F88C2097ED73
:103A7800107AD7ED0F7A77EE677AC3ED007AD7ED33
:103A88000A7AF1EE677A97ED147A67EE277AC7ED2E
:103A9800127AD7ED097A97ED137A67EE277AC7ED90
:103AA800117AD7ED097A97ED147A67EE277AC7ED80
:103AB800107AD7ED0A7A97ED137A67EE277AC7ED71
:103AC8000F7AD7F8A4301A1FC7F8A42097ED127AF6
:103AD800D7ED117A77EE677AC3ED007AD7F8A4307C
:103AE8001A1FC7F8A42097ED0F7AD7ED107A77EE52
:103AF800677AC3ED007AD7F894301B683B65D7F82E
:103B0800943004331B68FB647B6E9B00D7F89420C9
:103B18001344C7F89430D7ED037A97ED147A67EE1B
:103B2800277AC7ED127AD7ED047A97ED137A67EE04
:103B3800277AC7ED117AD7ED047A97ED147A67EEF4
:103B4800277AC7ED107AD7ED037A97ED137A67EEE7
:103B5800277AC7ED0F7AD7F888301A1DC7F888205A
:103B680097ED127AD7ED117A77EE277AC3ED007ABE
:103B7800D7F888301A1DC7F8882097ED107AD7ED46
:103B88000F7A77EE677AC3ED007AD7ED067A97ED6C
:103B9800137A67EE277AC7ED127AD7ED057A97ED93
:103BA800147A67EE277AC7ED117AD7ED057A97ED83
:103BB800137A67EE277AC7ED107AD7ED067A97ED74
:103BC800147A67EE277AC7ED0F7AD7F8A0301A1F54
:103BD800C7F8A02097ED127AD7ED117A77EE677AB9
:103BE800C3ED007AD7F8A0301A1FC7F8A02097EDC8
:103BF800107AD7ED0F7A77EE277AC3ED007AD7F8E7
:103C08008430013BC7F88430D7F88430002B7FF428
:103C1800DEAC3B6893ED007AD7F88C30D3ED007AB0
:103C280077EE277AC7ED187A3B6893ED007AD7F8D4
:103C38008C30D3ED007A77EE677AC7ED177A3B6858
:103C4800043393ED007AD7F88C300433D3ED007A3F
:103C580077EE277AC7ED167A3B68043393ED007A3E
:103C6800D7F88C300433D3ED007A77EE677AC7ED56
:103C7800157AD7F89030043393ED007AD7ED177A98
:103C880037EE277AD7F888300433D3ED007A77EE09
:103C9800677AC7ED0B7AD7F89030D3ED007A97EDB5
:103CA800157A37EE677AD7F88830D3ED007A77EE51
:103CB800277AC7ED0C7AD7F89030D3ED007A97EDD4
:103CC800187A37EE677AD7F88830D3ED007A77EE2E
:103CD800677AC7ED077AD7F890300433D3ED007AC6
:103CE80097ED167A37EE677AD7F888300433D3ED34
:103CF800007A77EE677AC7ED087AD7F89030043300
:103D0800D3ED007A97ED177A37EE677AD7F88830CF
:103D18000433D3ED007A77EE277AC7ED037AD7F824
:103D2800903093ED007AD7ED157A37EE277AD7F8E9
:103D38008830D3ED007A77EE677AC7ED047AD7F842
:103D4800903093ED007AD7ED187A37EE277AD7F8C6
:103D58008830D3ED007A3B681A1D3A6077EE277AEF
:103D6800C3ED007AD7F89030043393ED007AD7ED9D
:103D7800167A37EE277AD7F888300433D3ED007AED
:103D88003B681A1D3A6077EE277AC3ED007AD7F8B8
:103D98009C301B683B65D7F89C3004331B68FB6478
:103DA800D7ED0B7A97ED147A67EE277AC7ED127A7A
:103DB800D7ED0C7A97ED137A67EE277AC7ED117A6B
:103DC800D7ED0C7A97ED147A67EE277AC7ED107A5B
:103DD800D7ED0B7A97ED137A67EE277AC7ED0F7A4E
:103DE800D7F890301A1DC7F8902097ED127AD7EDC2
:103DF800117A77EE277AC3ED007AD7F890301A1D3A
:103E0800C7F8902097ED107AD7ED0F7A77EE677A9A
:103E1800C3ED007AD7F898301B683B65D7F898301F
:103E280004331B68FB64D7ED077A97ED147A67EEC5
:103E3800277AC7ED127AD7ED087A97ED137A67EEED
:103E4800277AC7ED117AD7ED087A97ED147A67EEDD
:103E5800277AC7ED107AD7ED077A97ED137A67EED0
:103E6800277AC7ED0F7AD7F88C301A1DC7F88C203F
:103E780097ED127AD7ED117A77EE277AC3ED007AAB
:103E8800D7F88C301A1DC7F88C2097ED107AD7ED2B
:103E98000F7A77EE677AC3ED007AD7F894301B680B
:103EA8003B65D7F8943004331B68FB64D7ED037A7D
:103EB80097ED147A67EE277AC7ED127AD7ED047A70
:103EC80097ED137A67EE277AC7ED117AD7ED047A62
:103ED80097ED147A67EE277AC7ED107AD7ED037A53
:103EE80097ED137A67EE277AC7ED0F7AD7F88830FF
:103EF8001A1DC7F8882097ED127AD7ED117A77EE58
:103F0800277AC3ED007AD7F888301A1DC7F88820B9
:103F180097ED107AD7ED0F7A77EE677AC3ED007ACE
:103F2800D7F8803099B27B685A680423F86F00F09C
:103F3800D9F8D7F8803099B27B685A680423B86FEB
:103F480000F0D0F8D7F8803099B27B685A6804231B
:103F5800786F00F0C7F8D7F8803099B27B685A6854
:103F68000423386F00F0BEF800BFB037BD4680BDEF
:103F780080B588B000AFF860B96011461A460B46A4
:103F8800FB711346BB71FB681B887B61FB79012BB6
:103F980017D1BB680433BB610023FB610DE0BB692B
:103FA800D3ED007AF1EE677ABB69C3ED007ABB699D
:103FB8000833BB61FB690133FB61FA697B699A428B
:103FC800EDD37B69B3F5805F40D07B69B3F5805F43
:103FD80045D87B69B3F5006F33D07B69B3F5006FC3
:103FE8003DD87B69B3F5806F26D07B69B3F5806FC8
:103FF80035D87B69B3F5007F28D07B69B3F5007F9E
:104008002DD87B69B3F5807F1BD07B69B3F5807FA2
:1040180025D87B69802B0FD07B69802B1FD87B69C3
:10402800402B13D07B69402B19D87B69102B03D008
:104038007B69202B05D012E0B968F868FEF774FF99
:104048000DE0B968F868FFF763F908E07B6999B291
:10405800FB685A680123B86800F044F800BFBB79D0
:10406800002B07D0FB689989FB689B681A46B868DB
:10407800FCF7AEF8FB79012B30D17B6907EE903A5B
:10408800B8EE677AF7EE006AC6EE877AC7ED047A6B
:10409800BB68BB610023FB611CE0BB691A1DBA61E8
:1040A80093ED007AD7ED047A67EE277AC3ED007AAC
:1040B800BB69D3ED007AB1EE677AD7ED047A67EE83
:1040C800277ABB69C3ED007ABB690433BB61FB691E
:1040D8000133FB61FA697B699A42DED300BF20375E
:1040E800BD4680BD80B4BDB000AFF8607A601A46A6
:1040F8000B467B8113463B81094BC7F8DC307B8933
:10410800C7F8E430D7F8E430C7F8D830D7F8E43047
:10411800DB08C7F8E4300023C7F8E83002E000BF46
:10412800F304353FD7F8E820D7F8E4301344C7F84C
:10413800D430D7F8D420D7F8E4301344C7F8D030B7
:10414800D7F8D020D7F8E4301344C7F8CC30D7F8E4
:10415800CC20D7F8E4301344C7F8C830D7F8C820C3
:10416800D7F8E4301344C7F8C430D7F8C420D7F8D8
:10417800E4301344C7F8C030D7F8C020D7F8E4308B
:104188001344C7F8BC30D7F8E830DB00FA681344AA
:1041980093ED007AD7F8C830DB00FA681344D3ED02
:1041A800007A77EE277AC7ED2E7AD7F8E830DB0069
:1041B800FA68134493ED007AD7F8C830DB00FA6840
:1041C8001344D3ED007A77EE677AC7ED2D7AD7F8E6
:1041D800D430DB00FA68134493ED007AD7F8C43082
:1041E800DB00FA681344D3ED007A77EE277AC7ED3F
:1041F8002C7AD7F8D430DB00FA68134493ED007AB0
:10420800D7F8C430DB00FA681344D3ED007A77EEB0
:10421800677AC7ED2B7AD7F8D030DB00FA681344F9
:1042280093ED007AD7F8C030DB00FA681344D3ED79
:10423800007A77EE277AC7ED2A7AD7F8D030DB00F4
:10424800FA68134493ED007AD7F8C030DB00FA68B7
:104258001344D3ED007A77EE677AC7ED297AD7F859
:10426800CC30DB00FA68134493ED007AD7F8BC3001
:10427800DB00FA681344D3ED007A77EE277AC7EDAE
:10428800287AD7F8CC30DB00FA68134493ED007A2B
:10429800D7F8BC30DB00FA681344D3ED007A77EE28
:1042A800677AC7ED277A97ED2E7AD7ED2A7A77EED7
:1042B800677AC7ED267A97ED2E7AD7ED2A7A77EEC8
:1042C800277AC7ED2E7A97ED2C7AD7ED287A77EEF4
:1042D800677AC7ED2A7A97ED2C7AD7ED287A77EEA8
:1042E800277AC7ED2C7AD7F8E830DB00FA68134450
:1042F80097ED2E7AD7ED2C7A77EE277AC3ED007AF0
:10430800D7F8C830DB00FA68134497ED2E7AD7ED5A
:104318002C7A77EE677AC3ED007AD7F8E830DB00BD
:104328000433FA68134493ED007AD7F8C830DB00F9
:104338000433FA681344D3ED007A77EE277AC7ED91
:104348002E7AD7F8E830DB000433FA68134493ED8B
:10435800007AD7F8C830DB000433FA681344D3ED89
:10436800007A77EE677AC7ED257AD7F8D430DB0084
:104378000433FA68134493ED007AD7F8C430DB00AD
:104388000433FA681344D3ED007A77EE277AC7ED41
:104398002C7AD7F8D430DB000433FA68134493ED51
:1043A800007AD7F8C430DB000433FA681344D3ED3D
:1043B800007A77EE677AC7ED247AD7F8D030DB0039
:1043C8000433FA68134493ED007AD7F8C030DB0061
:1043D8000433FA681344D3ED007A77EE277AC7EDF1
:1043E800237AD7F8D030DB000433FA68134493ED0E
:1043F800007AD7F8C030DB000433FA681344D3EDF1
:10440800007A77EE677AC7ED227AD7F8CC30DB00EE
:104418000433FA68134493ED007AD7F8BC30DB0014
:104428000433FA681344D3ED007A77EE277AC7EDA0
:10443800287AD7F8CC30DB000433FA68134493EDBC
:10444800007AD7F8BC30DB000433FA681344D3EDA4
:10445800007A77EE677AC7ED217A97ED2E7AD7ED55
:10446800237A77EE677AC7ED207A97ED2E7AD7ED23
:10447800237A77EE277AC7ED2E7A97ED2C7AD7ED47
:10448800287A77EE677AC7ED237A97ED2C7AD7EDFD
:10449800287A77EE277AC7ED2C7AD7F8E830DB0050
:1044A8000433FA68134497ED2E7AD7ED2C7A77EE19
:1044B800277AC3ED007AD7F8C830DB000433FA68EE
:1044C800134497ED2E7AD7ED2C7A77EE677AC3ED01
:1044D800007AD7F8D030DB00FA68134497ED267AD3
:1044E800D7ED237A77EE277AC3ED007AD7F8C03074
:1044F800DB00FA68134497ED267AD7ED237A77EE36
:10450800677AC3ED007AD7F8D030DB000433FA6855
:10451800134497ED207AD7ED2A7A77EE677AC3EDC0
:10452800007AD7F8C030DB000433FA68134497EDFB
:10453800207AD7ED2A7A77EE277AC3ED007A97EDBD
:104548002B7AD7ED277A77EE677A97ED377A67EE89
:10455800277AC7ED2E7A97ED2B7AD7ED277A77EE63
:10456800277A97ED377A67EE277AC7ED2B7A97ED9A
:10457800247AD7ED217A77EE677A97ED377A67EE66
:10458800277AC7ED2C7A97ED247AD7ED217A77EE42
:10459800277A97ED377A67EE277AC7ED247A97ED71
:1045A8002D7AD7ED2E7A77EE677AC7ED267A97EDD2
:1045B8002D7AD7ED2E7A77EE277AC7ED2D7A97EDFB
:1045C800297AD7ED2B7A77EE677AC7ED277A97EDB8
:1045D800297AD7ED2B7A77EE277AC7ED297A97EDE6
:1045E800257AD7ED2C7A77EE677AC7ED207A97EDA2
:1045F800257AD7ED2C7A77EE277AC7ED257A97EDCD
:10460800227AD7ED247A77EE677AC7ED217A97ED8B
:10461800227AD7ED247A77EE277AC7ED227AD7F86F
:10462800D430DB00FA68134497ED2D7AD7ED227A5F
:1046380077EE277AC3ED007AD7F8BC30DB00FA684A
:10464800134497ED2D7AD7ED227A77EE677AC3ED8A
:10465800007AD7F8C430DB00FA68134497ED267A5D
:10466800D7ED217A77EE277AC3ED007AD7F8CC30E8
:10467800DB00FA68134497ED267AD7ED217A77EEB6
:10468800677AC3ED007AD7F8D430DB000433FA68D0
:10469800134497ED257AD7ED297A77EE677AC3ED3B
:1046A800007AD7F8BC30DB000433FA68134497ED7E
:1046B800257AD7ED297A77EE277AC3ED007AD7F8ED
:1046C800C430DB000433FA68134497ED207AD7ED41
:1046D800277A77EE677AC3ED007AD7F8CC30DB001B
:1046E8000433FA68134497ED207AD7ED277A77EEEA
:1046F800277AC3ED007AD7F8E820D7F8D8301344E2
:10470800C7F8E8307B89D7F8E8209A42FFF40AAD69
:10471800D7F8E430072B40F2E3840023C7F8EC30E5
:104728000123C7F8E0303B89D7F8EC201344FB6736
:10473800FB6FC7F8EC30D7F8EC20FB6F1344BB676E
:10474800BA6FFB6F13447B677A6FFB6F13443B6749
:104758003A6FFB6F1344FB66FA6EFB6F1344BB663C
:10476800BA6EFB6F13447B66D7F8EC30DB007A68CF
:1047780013441B683B66BB6FDB007A6813441B68F5
:10478800FB657B6FDB007A6813441B68BB653B6F76
:10479800DB007A6813441B687B65FB6EDB007A6874
:1047A80013441B683B65BB6EDB007A6813441B68C7
:1047B800FB647B6EDB007A6813441B68BB64D7F824
:1047C800EC30DB0004337A6813441B687B64BB6FEE
:1047D800DB0004337A6813441B683B647B6FDB009F
:1047E80004337A6813441B68FB633B6FDB000433B4
:1047F8007A6813441B68BB63FB6EDB0004337A687A
:1048080013441B687B63BB6EDB0004337A68134474
:104818001B683B637B6EDB0004337A6813441B68B8
:10482800FB62D7F8E030C7F8E830D7F8E820D7F8C7
:10483800E4301344C7F8D430D7F8D420D7F8E4309C
:104848001344C7F8D030D7F8D020D7F8E430134451
:10485800C7F8CC30D7F8CC20D7F8E4301344C7F8E1
:10486800C830D7F8C820D7F8E4301344C7F8C430A4
:10487800D7F8C420D7F8E4301344C7F8C030D7F8C5
:10488800C020D7F8E4301344C7F8BC30D7F8E83074
:10489800DB00FA68134493ED007AD7F8C830DB00E0
:1048A800FA681344D3ED007A77EE277AC7ED2E7AAB
:1048B800D7F8E830DB00FA68134493ED007AD7F8AC
:1048C800C830DB00FA681344D3ED007A77EE677AD4
:1048D800C7ED2D7AD7F8D430DB00FA68134493ED8E
:1048E800007AD7F8C430DB00FA681344D3ED007AB5
:1048F80077EE277AC7ED2C7AD7F8D430DB00FA6840
:10490800134493ED007AD7F8C430DB00FA681344F7
:10491800D3ED007A77EE677AC7ED2B7AD7F8D030E7
:10492800DB00FA68134493ED007AD7F8C030DB0057
:10493800FA681344D3ED007A77EE277AC7ED2A7A1E
:10494800D7F8D030DB00FA68134493ED007AD7F833
:10495800C030DB00FA681344D3ED007A77EE677A4B
:10496800C7ED297AD7F8CC30DB00FA68134493ED09
:10497800007AD7F8BC30DB00FA681344D3ED007A2C
:1049880077EE277AC7ED287AD7F8CC30DB00FA68BB
:10499800134493ED007AD7F8BC30DB00FA6813446F
:1049A800D3ED007A77EE677AC7ED277A97ED2E7AFE
:1049B800D7ED2A7A77EE677AC7ED267A97ED2E7AC1
:1049C800D7ED2A7A77EE277AC7ED2E7A97ED2C7AEB
:1049D800D7ED287A77EE677AC7ED2A7A97ED2C7AA1
:1049E800D7ED287A77EE277AC7ED2C7AD7F8E83012
:1049F800DB00FA68134497ED2E7AD7ED2C7A77EE20
:104A0800277AC3ED007A97ED2E7AD7ED2C7A77EED8
:104A1800677AC7ED2C7AD7F8E830DB000433FA68F8
:104A2800134493ED007AD7F8C830DB000433FA68F2
:104A38001344D3ED007A77EE277AC7ED0A7AD7F8D0
:104A4800E830DB000433FA68134493ED007AD7F8B2
:104A5800C830DB000433FA681344D3ED007A77EEEC
:104A6800677AC7ED257AD7F8D430DB000433FA68C3
:104A7800134493ED007AD7F8C430DB000433FA68A6
:104A88001344D3ED007A77EE277AC7ED097AD7F881
:104A9800D430DB000433FA68134493ED007AD7F876
:104AA800C430DB000433FA681344D3ED007A77EEA0
:104AB800677AC7ED247AD7F8D030DB000433FA6878
:104AC800134493ED007AD7F8C030DB000433FA685A
:104AD8001344D3ED007A77EE277AC7ED237AD7F817
:104AE800D030DB000433FA68134493ED007AD7F82A
:104AF800C030DB000433FA681344D3ED007A77EE54
:104B0800677AC7ED227AD7F8CC30DB000433FA682D
:104B1800134493ED007AD7F8BC30DB000433FA680D
:104B28001344D3ED007A77EE277AC7ED087AD7F8E1
:104B3800CC30DB000433FA68134493ED007AD7F8DD
:104B4800BC30DB000433FA681344D3ED007A77EE07
:104B5800677AC7ED217A97ED0A7AD7ED237A77EE4F
:104B6800677AC7ED207A97ED0A7AD7ED237A77EE40
:104B7800277AC7ED0A7A97ED097AD7ED087A77EEA2
:104B8800677AC7ED237A97ED097AD7ED087A77EE39
:104B9800277AC7ED097A97ED267AD7ED237A77EE4B
:104BA800277AC7ED2E7A97ED267AD7ED237A77EE16
:104BB800677AC7ED267AD7F8E830DB000433FA685D
:104BC800134497ED0A7AD7ED097A77EE277AC3ED81
:104BD800007A97ED0A7AD7ED097A77EE677AC7ED0A
:104BE800097A97ED207AD7ED2A7A77EE677AC7EDBA
:104BF8000A7A97ED207AD7ED2A7A77EE277AC7EDE9
:104C0800207A97ED157AD7ED2C7A67EE277AC7EDDB
:104C1800077A97ED0E7AD7ED097A67EE277AC7ED0E
:104C2800067A97ED157AD7ED097A67EE277AC7EDF8
:104C3800057A97ED0E7AD7ED2C7A67EE277AC7EDCD
:104C4800047AD7F8C830DB00FA68134497ED077A7E
:104C5800D7ED067A77EE277AC3ED007AD7F8C83011
:104C6800DB000433FA68134497ED057AD7ED047A2C
:104C780077EE677AC3ED007A97ED177AD7ED2E7A3B
:104C880067EE277AC7ED077A97ED107AD7ED0A7A9B
:104C980067EE277AC7ED067A97ED177AD7ED0A7A85
:104CA80067EE277AC7ED057A97ED107AD7ED2E7A59
:104CB80067EE277AC7ED047AD7F8D030DB00FA68B8
:104CC800134497ED077AD7ED067A77EE277AC3ED86
:104CD800007AD7F8D030DB000433FA68134497ED34
:104CE800057AD7ED047A77EE677AC3ED007A97ED07
:104CF800137AD7ED267A67EE277AC7ED077A97ED0C
:104D08000C7AD7ED207A67EE277AC7ED067A97ED09
:104D1800137AD7ED207A67EE277AC7ED057A97EDF3
:104D28000C7AD7ED267A67EE277AC7ED047AD7F89A
:104D3800C030DB00FA68134497ED077AD7ED067A9E
:104D480077EE277AC3ED007AD7F8C030DB0004335A
:104D5800FA68134497ED057AD7ED047A77EE677A07
:104D6800C3ED007A97ED2B7AD7ED277A77EE677A3D
:104D780097ED377A67EE277AC7ED2E7A97ED2B7A7B
:104D8800D7ED277A77EE277A97ED377A67EE277A85
:104D9800C7ED2B7A97ED247AD7ED217A77EE677AEB
:104DA80097ED377A67EE277AC7ED0A7A97ED247A76
:104DB800D7ED217A77EE277A97ED377A67EE277A5B
:104DC800C7ED247A97ED2D7AD7ED2E7A77EE677AAC
:104DD800C7ED267A97ED2D7AD7ED2E7A77EE277ADA
:104DE800C7ED2D7A97ED297AD7ED2B7A77EE677A8A
:104DF800C7ED277A97ED297AD7ED2B7A77EE277AC0
:104E0800C7ED297A97ED257AD7ED0A7A77EE677A92
:104E1800C7ED207A97ED257AD7ED0A7A77EE277ACB
:104E2800C7ED257A97ED227AD7ED247A77EE677A5F
:104E3800C7ED217A97ED227AD7ED247A77EE277A93
:104E4800C7ED227A97ED2D7AD7ED227A77EE277A79
:104E5800C7ED2E7A97ED2D7AD7ED227A77EE677A1D
:104E6800C7ED2D7A97ED267AD7ED217A77EE277A56
:104E7800C7ED2B7A97ED267AD7ED217A77EE677A08
:104E8800C7ED267A97ED257AD7ED297A77EE677AF6
:104E9800C7ED0A7A97ED257AD7ED297A77EE277A42
:104EA800C7ED257A97ED207AD7ED277A77EE677ADE
:104EB800C7ED247A97ED207AD7ED277A77EE277A0F
:104EC800C7ED207A97ED187AD7ED2E7A67EE277A14
:104ED800C7ED077A97ED117AD7ED0A7A67EE277A48
:104EE800C7ED067A97ED187AD7ED0A7A67EE277A32
:104EF800C7ED057A97ED117AD7ED2E7A67EE277A06
:104F0800C7ED047AD7F8D430DB00FA68134497ED7C
:104F1800077AD7ED067A77EE277AC3ED007AD7F8C5
:104F2800D430DB000433FA68134497ED057AD7EDE3
:104F3800047A77EE677AC3ED007A97ED127AD7EDA7
:104F48002D7A67EE277AC7ED077A97ED0B7AD7EDBA
:104F5800257A67EE277AC7ED067A97ED127AD7EDAC
:104F6800257A67EE277AC7ED057A97ED0B7AD7EDA4
:104F78002D7A67EE277AC7ED047AD7F8BC30DB00C4
:104F8800FA68134497ED077AD7ED067A77EE277A11
:104F9800C3ED007AD7F8BC30DB000433FA68134459
:104FA80097ED057AD7ED047A77EE677AC3ED007A44
:104FB80097ED147AD7ED2B7A67EE277AC7ED077A43
:104FC80097ED0D7AD7ED247A67EE277AC7ED067A42
:104FD80097ED147AD7ED247A67EE277AC7ED057A2C
:104FE80097ED0D7AD7ED2B7A67EE277AC7ED047A1D
:104FF800D7F8C430DB00FA68134497ED077AD7ED89
:10500800067A77EE277AC3ED007AD7F8C430DB004A
:105018000433FA68134497ED057AD7ED047A77EEEE
:10502800677AC3ED007A97ED167AD7ED267A67EEA0
:10503800277AC7ED077A97ED0F7AD7ED207A67EED2
:10504800277AC7ED067A97ED167AD7ED207A67EEBC
:10505800277AC7ED057A97ED0F7AD7ED267A67EEAE
:10506800277AC7ED047AD7F8CC30DB00FA68134406
:1050780097ED077AD7ED067A77EE277AC3ED007AAF
:10508800D7F8CC30DB000433FA68134497ED057A7F
:10509800D7ED047A77EE677AC3ED007AD7F8E8207F
:1050A800D7F8D8301344C7F8E8307B89D7F8E82018
:1050B8009A42FFF4BAABD7F8E0300133C7F8E030D2
:1050C800D7F8E020D7F8E4309A42FFF42CAB3B89BC
:1050D800DB003B81D7F8E430072B3FF613A800E04C
:1050E80000BF00BFF437BD465DF8047B704700BFC2
:1050F80080B582B000AF87ED010A3860D7ED017A3C
:10510800F5EEC07AF1EE10FA0ADB97ED010A06F027
:105118001DFBF0EE407A3B68C3ED007A002305E002
:105128003B684FF000021A604FF0FF33184608370B
:10513800BD4680BD80B588B000AFF860B9607A60C0
:105148007B689B08FB6172E0FB681A1DFA601B68AC
:10515800BB61FB681A1DFA601B687B61D7ED067A94
:1051680027EEA77AD7ED057A67EEA77A77EE277A42
:10517800BB681A1DBA601846B0EE670AFFF7B8FF99
:10518800FB681A1DFA601B68BB61FB681A1DFA6090
:105198001B687B61D7ED067A27EEA77AD7ED057AEB
:1051A80067EEA77A77EE277ABB681A1DBA601846A9
:1051B800B0EE670AFFF79CFFFB681A1DFA601B68D0
:1051C800BB61FB681A1DFA601B687B61D7ED067A24
:1051D80027EEA77AD7ED057A67EEA77A77EE277AD2
:1051E800BB681A1DBA601846B0EE670AFFF780FF61
:1051F800FB681A1DFA601B68BB61FB681A1DFA6020
:105208001B687B61D7ED067A27EEA77AD7ED057A7A
:1052180067EEA77A77EE277ABB681A1DBA60184638
:10522800B0EE670AFFF764FFFB69013BFB61FB69AE
:10523800002B89D17B6803F00303FB611EE0FB6848
:105248001A1DFA601B68BB61FB681A1DFA601B68AF
:105258007B61D7ED067A27EEA77AD7ED057A67EE58
:10526800A77A77EE277ABB681A1DBA601846B0EE9F
:10527800670AFFF73DFFFB69013BFB61FB69002BF8
:10528800DDD100BF00BF2037BD4680BD80B495B0DA
:1052980000AFF860B9607A60FB685B69BB64BB68A3
:1052A8007B64BB683B64FB681B88013BFB643B6C0D
:1052B8001B68FB633B6C5B68BB637B6C1B687B6335
:1052C8007B6C5B683B63BB6C1A1DBA641B68FB6232
:1052D800BB6C1A1DBA641B68BB6297ED0F7AD7EDD9
:1052E8000D7A77EE277AC7ED097A97ED0E7AD7ED22
:1052F8000C7A77EE277AC7ED087A97ED097AD7ED19
:10530800087A77EE277A7B681A1D7A60B6EE007AFB
:1053180067EE877AC3ED007A97ED097AD7ED087AB8
:1053280077EE677A7B681A1D7A60B6EE007A67EEC8
:10533800877AC3ED007AFB6CDB00BA6813443B64E0
:105348007B6C08337B643B6C5B68BB633B6C1B68A2
:10535800FB637B6C1B687B637B6C5B683B63BB6C30
:105368001A1DBA641B68FB62BB6C1A1DBA641B6801
:10537800BB6297ED0F7AD7ED0D7A77EE677AC7EDB6
:10538800097A97ED0E7AD7ED0C7A77EE277AC7ED82
:10539800087A97ED0B7AD7ED097A67EE277AC7ED89
:1053A800077A97ED0A7AD7ED097A67EE277AC7ED7B
:1053B800067A97ED0B7AD7ED087A67EE277AC7ED6C
:1053C800057A97ED0A7AD7ED087A67EE277AC7ED5E
:1053D800047A97ED0D7AD7ED0F7A37EE277AD7ED65
:1053E800077A37EE277AD7ED047A77EE277A7B6843
:1053F8001A1D7A60B6EE007A67EE877AC3ED007AF6
:1054080097ED0C7AD7ED0E7A37EE677AD7ED067AF4
:1054180037EE277AD7ED057A77EE677A7B681A1D1B
:105428007A60B6EE007A67EE877AC3ED007A7B6C15
:1054380008337B643B6C083B3B64FB6C013BFB64BF
:10544800FB6C002B7FF47FAF00BF00BF5437BD4615
:105458005DF8047B704780B495B000AFF860B96020
:105468007A60FB685B69BB64BB687B64BB683B6450
:10547800FB681B88013BFB647B6C1B68FB637B6CD4
:105488005B68BB63BB6C0833BB6497ED0F7AD7EDE1
:105498000E7A77EE277A7B681A1D7A60B6EE007A64
:1054A80067EE877AC3ED007A97ED0F7AD7ED0E7A1B
:1054B80077EE677A7B681A1D7A60B6EE007A67EE37
:1054C800877AC3ED007AFB6CDB00BA6813443B644F
:1054D8007B6C08337B647CE03B6C5B687B633B6C78
:1054E8001B683B637B6C1B68FB637B6C5B68BB6303
:1054F800BB6C1A1DBA641B68FB62BB6C1A1DBA64CC
:105508001B68BB6297ED0F7AD7ED0C7A77EE677A56
:10551800C7ED097A97ED0E7AD7ED0D7A77EE277AEF
:10552800C7ED087A97ED0B7AD7ED097A67EE277AF7
:10553800C7ED077A97ED0A7AD7ED087A67EE277AEA
:10554800C7ED067A97ED0A7AD7ED097A67EE277ADA
:10555800C7ED057A97ED0B7AD7ED087A67EE277ACB
:10556800C7ED047A97ED0F7AD7ED0C7A37EE277AE4
:10557800D7ED077A37EE677AD7ED067A77EE677A4E
:105588007B681A1D7A60B6EE007A67EE877AC3EDFB
:10559800007A97ED0E7AD7ED0D7A37EE677AD7ED68
:1055A800057A37EE277AD7ED047A77EE677A7B6843
:1055B8001A1D7A60B6EE007A67EE877AC3ED007A34
:1055C8007B6C08337B643B6C083B3B64FB6C013BA6
:1055D800FB64FB6C002B7FF47FAF00BF00BF543728
:1055E800BD465DF8047B704780B586B000AFF860B3
:1055F800B9607A60FB70FB687B61FB681B8A5B089B
:105608009AB27B691A80FB78002B0BD07A68B9684C
:10561800F868FFF720FFFA78012379687869FEF7C0
:10562800A7FC0AE0FA780123B9687869FEF7A0FCBC
:105638007A68B968F868FFF729FE00BF1837BD46D1
:1056480080BD000080B485B000AF78600B467B80D9
:105658000023FB737B68BB607B885B089AB2BB68DE
:105668001A807B687A881A82BB681B88802B10D0C6
:10567800B3F5807F1AD1BB684FF4DC729A81BB689E
:10568800104A9A60BB68104A5A607B680F4A5A6190
:105698000FE0BB68D0229A81BB680D4A9A60BB684C
:1056A8000C4A5A607B680C4A5A6102E0FF23FB737C
:1056B80000BF97F90F3018461437BD465DF8047BD4
:1056C800704700BF20C8000880BE000890CF0008BF
:1056D80080C6000880BA000890CB000880B500AFEB
:1056E800B62005F0D9FE03461A46054B1A60054B4D
:1056F80000221A6000F080F80346184680BD00BFFB
:10570800800000208400002080B483B000AF0346EE
:10571800FB71084B1A68084B1B68591C0648016046
:105728001344FA791A7000BF0C37BD465DF8047B44
:10573800704700BF800000208400002080B584B03E
:1057480000AF78600B46FB700023FB73FB787C2B63
:1057580002D10123FB7304E0FB782F2B01D1022334
:10576800FB737B681A68FB7B9B0013445B68002B08
:105778000FD17B681B681B78BB737B681B681B7821
:105788001846FFF7C1FF0A4B1A687B681A60BB7B93
:105798000AE07B681A68FB7B9B0013445A687B68A5
:1057A8001A607B681B681B7818461037BD4680BD99
:1057B8008800002080B584B000AF0346FB7110213B
:1057C800012005F04DFE0346BB600023FB6008E0A6
:1057D800BA68FB689B00134400225A60FB680133D7
:1057E800FB60FB68022BF3DDBB68FA791A70BB68B3
:1057F80018461037BD4680BD90B583B000AF2D2048
:10580800FFF7D8FF0346614A1360604B1B687B6053
:105818006520FFF7CFFF02467B685A606120FFF7DB
:10582800C9FF02467B689A606920FFF7C3FF0246FA
:105838007B68DA60554B1B685B687B607020FFF7FC
:10584800B9FF02467B685A607120FFF7B3FF024632
:105858007B689A607220FFF7ADFF02467B68DA60CA
:105868004A4B1B68DB687B607320FFF7A3FF024687
:105878007B685A607420FFF79DFF02467B689A6038
:105888007520FFF797FF02467B68DA603F4B1B687D
:105898009B687B606220FFF78DFF02467B685A6039
:1058A8006320FFF787FF02467B689A606420FFF752
:1058B80081FF02467B68DA607B683B603B685B6817
:1058C8007B606A20FFF776FF02467B685A606B2090
:1058D800FFF770FF02467B689A606C20FFF76AFF4B
:1058E80002467B68DA603B68DB687B606D20FFF707
:1058F80061FF02467B685A606E20FFF75BFF024635
:105908007B689A606F20FFF755FF02467B68DA6074
:105918003B689B687B606620FFF74CFF02467B680C
:105928005A606720FFF746FF02467B689A60682046
:10593800FFF740FF02467B68DA607B685C68762088
:10594800FFF738FF034663607B68DC687720FFF762
:1059580031FF0346E3607B689B687B607820FFF734
:1059680029FF02467B685A607A20FFF723FF024628
:105978007B689A607920FFF71DFF02467B68DA6032
:10598800024B1B6818460C37BD4690BD88000020A6
:1059980080B584B004AF01F077F900F06BF800F03F
:1059A800C3FA00F0A1FA00F025F900F051F900F06F
:1059B8007DF900F0B1F900F0FBF900F047FA00F0CA
:1059C800C7F840230393204B0293202301931E4BD7
:1059D800009310231C4A1D491D48FBF735F8FFF7B3
:1059E8007DFE03461B4A13601B491C48FDF7B3F9AB
:1059F8004FF480711A48FFF725FE002200211C2071
:105A080001F025FD1C2001F03EFD164805F00CF9BB
:105A1800002200211D2001F01AFD1D2001F033FD98
:105A2800114805F001F9002200211E2001F00FFDA8
:105A38001E2001F028FD4FF480620C490C4803F049
:105A4800C1FB00BFFDE700BF00000240D0010020FD
:105A58000003002034030020D40000203803002075
:105A68004803002028020020700200206003002064
:105A78002801002080B594B000AF07F12003302240
:105A88000021184605F0C6FD07F10C0300221A6034
:105A98005A609A60DA601A612B4B5B6823F03F0307
:105AA800294A43F010035360274B5B68264A23F4C6
:105AB800800353600023BB60234B1B6C224A43F0D6
:105AC80080531364204B1B6C03F08053BB60BB688E
