:020000040800F2
:1000000000400020B51C0008C51B0008CD1B0008DF
:10001000D51B0008DD1B0008E51B000800000000E0
:10002000000000000000000000000000ED1B0008C0
:10003000FB1B000800000000091C0008171C00083A
:10004000051D0008051D0008051D0008051D000808
:10005000051D0008051D0008051D0008051D0008F8
:10006000051D0008051D0008051D0008051D0008E8
:10007000051D0008051D0008051D0008051D0008D8
:10008000051D0008051D0008051D0008051D0008C8
:10009000051D0008051D0008051D0008051D0008B8
:1000A000051D0008051D0008051D0008051D0008A8
:1000B000051D00080000000000000000051D0008EC
:1000C000051D0008051D0008051D000800000000B2
:1000D000051D0008051D0008051D0008051D000878
:1000E000051D0008051D0008051D00080000000092
:1000F0000000000000000000000000000000000000
:10010000000000000000000000000000051D0008C5
:100110000000000000000000051D000800000000B5
:1001200000000000000000000000000000000000CF
:1001300000000000000000000000000000000000BF
:10014000051D0008051D000800000000000000005B
:10015000000000000000000000000000000000009F
:10016000051D0008051D0008051D0008051D0008E7
:10017000051D000800000000000000000000000055
:0801800000000000051D00084D
:1001900010B5054C237833B9044B13B10448AFF3C1
:1001A00000800123237010BD5C00002000000000CF
:1001B0007051000808B5034B1BB103490348AFF366
:1001C000008008BD000000006000002070510008A1
:1001D00001F0FF01102A2BDB10F0070F08D010F8F8
:1001E000013B013A8B422DD010F0070F42B3F6D1FC
:1001F000F0B441EA012141EA014122F007047FF015
:1002000000070023F0E80256083C85EA010586EA6B
:10021000010685FA47F5A3FA87F586FA47F6A5FAA7
:1002200087F68EB9EED1F0BC01F0FF0102F00702B3
:1002300032B110F8013B013A83EA010313B1F8D15E
:100240000020704701387047002D06BF354603383F
:10025000073815F0010F07D1013015F4807F02BF78
:10026000013015F4C03F0130F0BC0138704700BFC9
:1002700081F0004102E000BF83F0004330B54FEA57
:1002800041044FEA430594EA050F08BF90EA020FC4
:100290001FBF54EA000C55EA020C7FEA645C7FEA57
:1002A000655C00F0E2804FEA5454D4EB5555B8BF7A
:1002B0006D420CDD2C4480EA020281EA030382EAEB
:1002C000000083EA010180EA020281EA0303362D7D
:1002D00088BF30BD11F0004F4FEA01314FF4801C50
:1002E0004CEA113102D0404261EB410113F0004F62
:1002F0004FEA03334CEA133302D0524263EB430319
:1003000094EA050F00F0A780A4F10104D5F1200EB6
:100310000DDB02FA0EFC22FA05F2801841F1000111
:1003200003FA0EF2801843FA05F359410EE0A5F1E5
:1003300020050EF1200E012A03FA0EFC28BF4CF016
:10034000020C43FA05F3C01851EBE37101F00045CC
:1003500007D54FF0000EDCF1000C7EEB00006EEBD9
:100360000101B1F5801F1BD3B1F5001F0CD3490863
:100370005FEA30004FEA3C0C04F101044FEA4452BA
:1003800012F5800F80F09A80BCF1004F08BF5FEA41
:10039000500C50F1000041EB045141EA050130BD21
:1003A0005FEA4C0C404141EB0101013C28BFB1F533
:1003B000801FE9D291F0000F04BF01460020B1FA7E
:1003C00081F308BF2033A3F10B03B3F120020CDA51
:1003D0000C3208DD02F1140CC2F10C0201FA0CF02F
:1003E00021FA02F10CE002F11402D8BFC2F1200C94
:1003F00001FA02F120FA0CFCDCBF41EA0C0190404A
:10040000E41AA2BF01EB0451294330BD6FEA040492
:100410001F3C1CDA0C340EDC04F11404C4F120027D
:1004200020FA04F001FA02F340EA030021FA04F38F
:1004300045EA030130BDC4F10C04C4F1200220FAE6
:1004400002F001FA04F340EA0300294630BD21FA24
:1004500004F0294630BD94F0000F83F4801306BFEA
:1004600081F480110134013D4EE77FEA645C18BFDE
:100470007FEA655C29D094EA050F08BF90EA020F75
:1004800005D054EA000C04BF1946104630BD91EA6D
:10049000030F1EBF0021002030BD5FEA545C05D170
:1004A0004000494128BF41F0004130BD14F58004AF
:1004B0003CBF01F5801130BD01F0004545F0FE4123
:1004C00041F470014FF0000030BD7FEA645C1ABF58
:1004D000194610467FEA655C1CBF0B46024650EA8F
:1004E000013406BF52EA033591EA030F41F40021BB
:1004F00030BD00BF90F0000F04BF0021704730B541
:100500004FF4806404F132044FF000054FF0000115
:1005100050E700BF90F0000F04BF0021704730B5D6
:100520004FF4806404F1320410F0004548BF4042AB
:100530004FF000013EE700BF42004FEAE2014FEA00
:1005400031014FEA02701FBF12F07F4393F07F4FDB
:1005500081F06051704732F07F4208BF704793F0DE
:100560007F4F04BF41F40021704730B54FF46074F1
:1005700001F0004521F000411CE700BF50EA0102F4
:1005800008BF704730B54FF000050AE050EA01029D
:1005900008BF704730B511F0004502D5404261EB0D
:1005A00041014FF4806404F132045FEA915C3FF44E
:1005B000D8AE4FF003025FEADC0C18BF03325FEAEB
:1005C000DC0C18BF033202EBDC02C2F1200300FA9C
:1005D00003FC20FA02F001FA03FE40EA0E0021FAC1
:1005E00002F11444BDE600BF4FF0FF3C06E000BF3F
:1005F0004FF0010C02E000BF4FF0010C4DF804CDAC
:100600004FEA410C7FEA6C5C4FEA430C18BF7FEA6B
:100610006C5C1BD001B050EA410C0CBF52EA430C99
:1006200091EA030F02BF90EA020F0020704710F119
:10063000000F91EA030F58BF994208BF90422CBFA8
:10064000D8176FEAE37040F0010070474FEA410CA1
:100650007FEA6C5C02D150EA013C07D14FEA430CBF
:100660007FEA6C5CD6D152EA033CD3D05DF8040B30
:10067000704700BF8446104662468C461946634662
:1006800000E000BF01B5FFF7B7FF002848BF10F139
:10069000000F01BD4DF808EDFFF7F4FF0CBF01207E
:1006A00000205DF808FB00BF4DF808EDFFF7EAFFFA
:1006B00034BF012000205DF808FB00BF4DF808EDB5
:1006C000FFF7E0FF94BF012000205DF808FB00BFAA
:1006D0004DF808EDFFF7CEFF94BF012000205DF834
:1006E00008FB00BF4DF808EDFFF7C4FF34BF012041
:1006F00000205DF808FB00BF4A0011D212F500127D
:1007000011D20DD56FF47873B3EB62520ED44FEA69
:10071000C12343F0004343EA505323FA02F07047E9
:100720004FF00000704750EA013002D14FF0FF3027
:1007300070474FF00000704790B591B002AFF8607D
:10074000B9607A607B80FB68BA681A60FB687A6877
:100750005A60FB687A881A82FB68BA6C9A60FB68F8
:10076000B7F84C205A82FB683A6DDA60FB68B7F83C
:1007700054209A82FB68032283F82220FB6800221F
:10078000DA82FB6800221A83FB686FF07F429A626C
:10079000FB680022DA62FB68624A1A63342003F0C5
:1007A000B9FF03461A46FB685A62002387F83730C0
:1007B0000FE0FB685A6A97F837309B00D4180E2078
:1007C00003F0A8FF0346236097F83730013387F81A
:1007D000373097F837300C2BEBD9FB685868FB683B
:1007E0001B8A0122194601F071FDFB685868FB68FD
:1007F0001B8A0022194601F069FDFB689868FB68B6
:100800005B8A0022194601F061FD052001F0E2FA41
:10081000FB689868FB685B8A0122194601F056FD67
:1008200001220121F86800F07FFF4FF47A7001F097
:10083000D1FA01223621F86800F076FF402387F8CC
:10084000343007F1340101230122F86800F096FFEB
:100850000122F221F86800F067FF032387F83030A7
:1008600007F1300101230122F86800F087FF01221F
:10087000E021F86800F058FF2B4B07F120040FCB64
:1008800007C4238002341B0C237007F120010123CD
:100890000F22F86800F072FF0122E121F86800F0F1
:1008A00043FF214B07F110040FCB07C42380023410
:1008B0001B0C237007F1100101230F22F86800F0D0
:1008C0005DFF01221121F86800F02EFF012229218D
:1008D000F86800F029FFFB685868FB681B8A012252
:1008E000194601F0F3FCFB689B6A1946F86800F0B2
:1008F0001DFE1F2300930B230F220121F86800F037
:1009000015F8F86800F092FE1F2300930B230F22C6
:100910000121F86800F00AF8002318463C37BD466C
:1009200090BD00BF00FFFF008851000880B588B06F
:1009300000AFF860084611461A4603467B810B4615
:100940003B811346FB80FB685868FB681B8A0022CA
:10095000194601F0BBFCFB687A895A83FB683A8927
:100960009A83FB68FA88DA83FB683A8D1A842A2313
:10097000FB77FB68D868FB689B8A0022194601F068
:10098000A5FCFB68186807F11F016423012202F02F
:10099000BEFF7B891B0A9BB2DBB23B767B89DBB255
:1009A0007B763B891B0A9BB2DBB2BB763B89DBB211
:1009B000FB76FB68D868FB689B8A0122194601F028
:1009C00085FCFB68186807F118016423042202F013
:1009D0009EFF2B23FB75FB68D868FB689B8A00226F
:1009E000194601F073FCFB68186807F117016423CE
:1009F000012202F08CFFFB881B0A9BB2DBB23B7426
:100A0000FB88DBB27B743B8D1B0A9BB2DBB2BB74F1
:100A10003B8DDBB2FB74FB68D868FB689B8A0122C4
:100A2000194601F053FCFB68186807F110016423B4
:100A3000042202F06CFFFB685868FB681B8A0122E5
:100A4000194601F043FC002318462037BD4680BDFF
:100A500080B588B000AFF860084611461A460346D4
:100A60007B810B463B811346FB80FB685868FB6823
:100A70001B8A0022194601F029FCFB687A895A83F7
:100A80007A893B8913449AB2FB689A83FB68FA8897
:100A9000DA83FA883B8D13449AB2FB681A842A23BE
:100AA000FB77FB68D868FB689B8A0022194601F037
:100AB0000DFCFB68186807F11F016423012202F096
:100AC00026FFFB685B8B1B0A9BB2DBB23B76FB68A5
:100AD0005B8BDBB27B76FB689B8B1B0A9BB2DBB22A
:100AE000BB76FB689B8BDBB2FB76FB68D868FB6848
:100AF0009B8A0122194601F0E9FBFB68186807F19F
:100B000018016423042202F002FF2B23FB75FB680B
:100B1000D868FB689B8A0022194601F0D7FBFB6866
:100B2000186807F117016423012202F0F0FEFB6848
:100B3000DB8B1B0A9BB2DBB23B74FB68DB8BDBB24B
:100B40007B74FB681B8C1B0A9BB2DBB2BB74FB681B
:100B50001B8CDBB2FB74FB68D868FB689B8A0122A4
:100B6000194601F0B3FBFB68186807F11001642314
:100B7000042202F0CCFEFB685868FB681B8A012245
:100B8000194601F0A3FB002318462037BD4680BD5F
:100B900080B586B000AFF860B9601346FB80FB6893
:100BA0005868FB681B8A0022194601F08FFB01225E
:100BB0002C21F86800F0B8FD324B1B883B820023E3
:100BC000BB74BB681B681B0CDBB223F00303DBB2F6
:100BD0003B74BB681B681B0ADBB223F00303DBB268
:100BE0007B74BB681B68DBB223F00303DBB2BB740E
:100BF00007F1100101230322F86800F0BFFD012373
:100C0000FB822EE001223C21F86800F08DFDFB8A7A
:100C10009B00BA6813441B681B0CDBB223F0030370
:100C2000DBB23B74FB8A9B00BA6813441B681B0A47
:100C3000DBB223F00303DBB27B74FB8A9B00BA6850
:100C400013441B68DBB223F00303DBB2BB7407F170
:100C5000100101230322F86800F090FDFB8A0133A4
:100C6000FB82FA8AFB889A42CCD3FB685868FB68FF
:100C70001B8A0122194601F029FB00231846183768
:100C8000BD4680BD9851000890B5C5B002AF07F5CC
:100C90008473A3F5827318600A4607F58473A3F280
:100CA00005131A7007F58473A3F582731B6893F814
:100CB00022301A4607F58473A3F582731B6893F8F4
:100CC000223002FB03F38C2202FB03F3184603F0ED
:100CD00021FD0346C7F8003107F58473A3F205131D
:100CE0001B78602B0AD907F58473A3F2051307F567
:100CF0008472A2F205121278203A1A7007F58473F2
:100D0000A3F205131B78412B0DD1B94A07F1EC036F
:100D100092E8030018600433198002330A0C1A7039
:100D200007F1EC035DE207F58473A3F205131B786A
:100D3000422B0DD1AF4A07F1E40392E8030018609B
:100D40000433198002330A0C1A7007F1E40348E2F5
:100D500007F58473A3F205131B78432B0DD1A64A24
:100D600007F1DC0392E803001860043319800233B2
:100D70000A0C1A7007F1DC0333E207F58473A3F25F
:100D800005131B78442B0DD19C4A07F1D40392E83C
:100D9000030018600433198002330A0C1A7007F13B
:100DA000D4031EE207F58473A3F205131B78452BC9
:100DB0000DD1934A07F1CC0392E803001860043385
:100DC000198002330A0C1A7007F1CC0309E207F507
:100DD0008473A3F205131B78462B0DD1894A07F1C2
:100DE000C40392E8030018600433198002330A0C2C
:100DF0001A7007F1C403F4E107F58473A3F2051335
:100E00001B78472B0DD1804A07F1BC0392E8030001
:100E100018600433198002330A0C1A7007F1BC03FE
:100E2000DFE107F58473A3F205131B78482B0DD17E
:100E3000764A07F1B40392E803001860043319807E
:100E400002330A0C1A7007F1B403CAE107F5847380
:100E5000A3F205131B78492B0DD16D4A07F1AC03A2
:100E600092E8030018600433198002330A0C1A70E8
:100E700007F1AC03B5E107F58473A3F205131B7802
:100E80004A2B0DD1634A07F1A40392E803001860CE
:100E90000433198002330A0C1A7007F1A403A0E18D
:100EA00007F58473A3F205131B784B2B0DD15A4A17
:100EB00007F19C0392E803001860043319800233A1
:100EC0000A0C1A7007F19C038BE107F58473A3F2F7
:100ED00005131B784C2B0DD1504A07F1940392E86F
:100EE000030018600433198002330A0C1A7007F1EA
:100EF000940376E107F58473A3F205131B784D2B59
:100F00000DD1474A07F18C0392E8030018600433BF
:100F1000198002330A0C1A7007F18C0361E107F59E
:100F20008473A3F205131B784E2B0DD13D4A07F1B4
:100F3000840392E8030018600433198002330A0C1A
:100F40001A7007F184034CE107F58473A3F20513CB
:100F50001B784F2B0DD1344A07F17C0392E8030034
:100F600018600433198002330A0C1A7007F17C03ED
:100F700037E107F58473A3F205131B78502B0DD1CD
:100F80002A4A07F1740392E80300186004331980B9
:100F900002330A0C1A7007F1740322E107F5847317
:100FA000A3F205131B78512B0DD1214A07F16C03D5
:100FB00092E8030018600433198002330A0C1A7097
:100FC00007F16C030DE107F58473A3F205131B7899
:100FD000522B31D1174A07F1640392E803001860DD
:100FE0000433198002330A0C1A7007F16403F8E025
:100FF0009C510008A4510008AC510008B4510008ED
:10100000BC510008C4510008CC510008D45100085C
:10101000DC510008E4510008EC510008F4510008CC
:10102000FC510008045200080C5200081452000839
:101030001C5200082452000807F58473A3F205131C
:101040001B78532B0DD1AD4A07F15C0392E80300E6
:1010500018600433198002330A0C1A7007F15C031C
:10106000BFE007F58473A3F205131B78542B0DD151
:10107000A34A07F1540392E803001860043319806F
:1010800002330A0C1A7007F15403AAE007F58473BF
:10109000A3F205131B78552B0DD19A4A07F14C0387
:1010A00092E8030018600433198002330A0C1A70A6
:1010B00007F14C0395E007F58473A3F205131B7841
:1010C000562B0DD1904A07F1440392E803001860B3
:1010D0000433198002330A0C1A7007F1440380E0CC
:1010E00007F58473A3F205131B78572B0DD1874A9C
:1010F00007F13C0392E803001860043319800233BF
:101100000A0C1A7007F13C036BE007F58473A3F235
:1011100005131B78582B0DD17D4A07F1340392E853
:10112000030018600433198002330A0C1A7007F1A7
:10113000340356E007F58473A3F205131B78592B8B
:101140000DD1744A07F12C0392E8030018600433B0
:10115000198002330A0C1A7007F12C0341E007F5DD
:101160008473A3F205131B785A2B0DD16A4A07F139
:10117000240392E8030018600433198002330A0C38
:101180001A7007F124032CE007F58473A3F205130A
:101190001B782E2B0DD1614A07F11C0392E8030046
:1011A00018600433198002330A0C1A7007F11C030B
:1011B00017E007F58473A3F205131B78202B08D1E1
:1011C00007F1140300221A60C3F8032007F1140387
:1011D00007E007F10C0300221A60C3F8032007F1AF
:1011E0000C0307F1F4021868106099889B799180CC
:1011F0009371002387F80731C0E007F58473A3F5E6
:1012000082731B6893F822301A469200134487F8C1
:101210000631A9E007F58473A3F582731B6893F880
:10122000223097F80721B2FBF3F3DBB21846FFF741
:1012300071F902460B4610461946FFF75DFA034660
:1012400087F8FF3097F8063107EE903AB8EE677AE4
:1012500007F58473A3F582731B6893F8223007EEB9
:10126000903AF8EE677AC7EE276A16EE900AFFF713
:1012700063F902460B4643EC102B03F0FDFE51ECE4
:10128000100B4FF00002264BFEF7F6FF02460B460E
:1012900010461946FFF730FA034687F8FE3097F8F4
:1012A000FF3003F584733B4413F8143C1A4697F857
:1012B000FE3042FA03F303F00103002B32D097F81B
:1012C0000731013307F58472A2F58272126892F831
:1012D000222003FB02F213469B001A4497F80631C2
:1012E000D31A9B00D7F80021134407F58472A2F5A6
:1012F00082721268D26A1A6031E000BF2C52000874
:10130000345200083C520008445200084C52000875
:10131000545200085C520008645200086C520008E5
:101320000000F03F97F80731013307F58472A2F50A
:101330008272126892F8222003FB02F213469B008D
:101340001A4497F80631D31A9B00D7F800211344AA
:1013500007F58472A2F582721268926A1A6097F891
:101360000631013B87F8063197F80631002B7FF4F0
:1013700051AF97F80731013387F8073197F8072104
:1013800007F58473A3F582731B6893F8223019461E
:101390000B46DB005B1A9A42FFF62FAF07F584730A
:1013A000A3F582731B6893F822301A4607F58473FD
:1013B000A3F582731B6893F8223012FB03F39BB2F0
:1013C0001A46920013441A46D200D31A9AB207F56D
:1013D0008473A3F58273D7F800111868FFF7D8FB60
:1013E000D7F8000103F09EF907F58473A3F5827323
:1013F0001B685A6A07F58473A3F582731B681B8BFD
:101400009B0013441B6807F58472A2F58272126870
:10141000D28A134407F58472A2F2051212781A7068
:1014200007F58473A3F582731B68DB8A0D2B25D126
:1014300007F58473A3F582731B680022DA8207F52F
:101440008473A3F582731B681B8B0D2B07D107F5E3
:101450008473A3F582731B6800221A831CE007F5CE
:101460008473A3F582731B681B8B01339AB207F553
:101470008473A3F582731B681A830DE007F58473E8
:10148000A3F582731B68DB8A01339AB207F5847374
:10149000A3F582731B68DA8207F58473A3F5827360
:1014A0001B68DB8A1A46120113449BB2013399B2BE
:1014B00007F58473A3F582731B6893F822301A46EC
:1014C000920013449BB2013B9AB207F58473A3F5D3
:1014D00082731B681B8B184640001844C000C31A57
:1014E0009BB20B339CB207F58473A3F582731B6820
:1014F00093F822301846C000C31A9BB2013B9BB23E
:1015000007F58470A0F58270009323460068FFF70A
:101510009FFA07F58473A3F58273186800F086F8C4
:101520000023184607F58677BD4690BD80B588B084
:1015300002AF786039607B6858687B681B8A00223C
:10154000194600F0C3FE7B685B8B7B827B689B8BBC
:101550003B827B68DB8BFB817B681B8CBB8140F211
:101560003F1300930023EF2200217868FFF7DEF994
:101570007B6858687B681B8A0022194600F0A6FE2B
:1015800001222C21786800F0CFF83B681B0CDBB2FD
:1015900023F00303DBB23B723B681B0ADBB223F090
:1015A0000303DBB27B723B68DBB223F00303DBB2E5
:1015B000BB727B68D8687B689B8A0122194600F061
:1015C00085FE0123FB8214E00023BB820AE07B68D6
:1015D000186807F108016423032202F098F9BB8A16
:1015E0000133BB82BB8AB3F5A07FF0D9FB8A0133FC
:1015F000FB82FB8AF02BE7D97B6858687B681B8AE3
:101600000122194600F062FE7B687A8A5A837B6861
:101610003A8A9A837B68FA89DA837B68BA891A8462
:10162000002318461837BD4680BD000080B588B03D
:1016300002AF78607B6858687B681B8A0022194675
:1016400000F044FE7B685B8BBB827B689B8B7B825C
:101650007B68DB8B3B827B681B8CFB817B685B8BB5
:10166000013B99B27B689B8B01339AB27B681B8CE0
:10167000013398B27B681B8C02339BB20093034604
:101680007868FFF753F97B6858687B681B8A0022EB
:10169000194600F01BFE01222C21786800F044F866
:1016A000204A07F108031268114619800233120C10
:1016B0001A707B68D8687B689B8A0122194600F003
:1016C00005FE0023FB750AE07B68186807F1080136
:1016D0006423032202F01BF9FB7D0133FB75FA7DC5
:1016E0007B689B8B19467B685B8BCB1A9A42EBDB42
:1016F0007B6858687B681B8A0122194600F0E6FD6A
:101700007B68BA8A5A837B687A8A9A837B683A8A2A
:10171000DA837B68FA891A84002318461837BD4695
:1017200080BD00BF7452000880B582B000AF786001
:101730000B46FB701346BB70BB7883F00103DBB232
:10174000002B07D07B6858687B681B8A00221946EB
:1017500000F0BCFD7B68D8687B689B8A0022194634
:1017600000F0B4FD7B681868F91C6423012202F0C4
:10177000CEF8002318460837BD4680BD80B584B03A
:1017800000AFF860B96011461A460B46FB7113466C
:10179000BB71BB7983F00103DBB2002B07D0FB6880
:1017A0005868FB681B8A0022194600F08FFDFB6811
:1017B000D868FB689B8A0122194600F087FDFB6808
:1017C000186864230422B96802F0A1F800231846BF
:1017D0001037BD4680BD000080B584B004AF00F076
:1017E00093FA00F035F800F0E1F800F0AFF800F0FF
:1017F0006FF81249124803F04BF864233222104963
:10180000104802F0ABFB402303934FF09043029348
:10181000202301934FF09043009310234FF0904208
:1018200009490A48FEF788FF4FF47A7000F0D2FAAF
:1018300048210648FFF728FA00BFFDE77852000864
:1018400098010020DC0000207800002064010020C6
:1018500080B590B000AF07F1180328220021184688
:1018600003F036F83B1D00221A605A609A60DA6075
:101870001A610223BB610123BB621023FB620223B6
:101880007B630023BB634FF48013FB6307F11803F2
:10189000184600F033FD0346002B01D000F0C4F8D9
:1018A0000F237B600223BB609023FB6000233B611E
:1018B00000237B613B1D0021184601F05DFD0346BE
:1018C000002B01D000F0B0F800BF4037BD4680BD0E
:1018D00080B500AF1B4B1C4A1A601A4B4FF4827242
:1018E0005A60184B00229A60164B4FF4E062DA609F
:1018F000144B00221A61134B00225A61114B4FF412
:1019000000729A610F4B1022DA610E4B00221A62AC
:101910000C4B00225A620B4B00229A62094B0722A1
:10192000DA62084B00221A63064B00225A6305480C
:1019300001F042FF0346002B01D000F075F800BF14
:1019400080BD00BF780000200038004080B500AFA7
:10195000144B154A1A60134B4FF416525A60114B30
:1019600000229A600F4B0022DA600E4B00221A61AF
:101970000C4B0C225A610B4B00229A61094B00223E
:10198000DA61084B00221A62064B00225A620548AF
:1019900002F096FA0346002B01D000F045F800BF94
:1019A00080BD00BFDC0000200044004080B588B04E
:1019B00000AF07F10C0300221A605A609A60DA60E7
:1019C0001A61184B5B69174A43F400335361154B96
:1019D0005B6903F40033BB60BB68124B5B69114A5F
:1019E00043F4802353610F4B5B6903F480237B60D6
:1019F0007B68002270214FF0904000F067FC70235C
:101A0000FB6001233B6100237B610023BB6107F185
:101A10000C0319464FF0904000F0E6FA00BF203763
:101A2000BD4680BD0010024080B400AF72B600BF5A
:101A300000BFFDE780B483B000AF0F4B9B690E4A37
:101A400043F0010393610C4B9B6903F001037B603E
:101A50007B68094BDB69084A43F08053D361064B2E
:101A6000DB6903F080533B603B6800BF0C37BD4629
:101A70005DF8047B704700BF0010024080B58AB05B
:101A800000AF786007F1140300221A605A609A6070
:101A9000DA601A617B681B68264A934246D1264B5E
:101AA000DB69254A43F48043D361234BDB6903F4AC
:101AB00080433B613B69204B5B691F4A43F48023B1
:101AC00053611D4B5B6903F48023FB60FB681A4B79
:101AD0005B69194A43F400335361174B5B6903F4A4
:101AE0000033BB60BB684FF400537B610223BB61D2
:101AF0000023FB6103233B6205237B6207F1140390
:101B000019460E4800F070FA4FF440637B610223DF
:101B1000BB610023FB6103233B6205237B6207F16A
:101B2000140319464FF0904000F05EFA00BF2837CA
:101B3000BD4680BD0038004000100240000400484F
:101B400080B58AB000AF786007F1140300221A60F4
:101B50005A609A60DA601A617B681B68174A934280
:101B600028D1174BDB69164A43F40033D361144B79
:101B7000DB6903F400333B613B69114B5B69104A3D
:101B800043F4003353610E4B5B6903F40033FB6095
:101B9000FB680C237B610223BB610023FB610323F1
:101BA0003B6207237B6207F1140319464FF0904014
:101BB00000F01AFA00BF2837BD4680BD004400403F
:101BC0000010024080B400AF00BFFDE780B400AF5A
:101BD00000BFFDE780B400AF00BFFDE780B400AFF9
:101BE00000BFFDE780B400AF00BFFDE780B400AFE9
:101BF00000BFBD465DF8047B704780B400AF00BFF6
:101C0000BD465DF8047B704780B400AF00BFBD46A1
:101C10005DF8047B704780B500AF00F0BBF800BFF3
:101C200080BD000080B586B000AF7860144A154BC7
:101C3000D31A7B617B693B61134B1B68002B02D17C
:101C4000114B124A1A60104B1A687B6813443A69A8
:101C50009A4207D202F054FE03460C221A604FF05B
:101C6000FF3309E0084B1B68FB60074B1A687B6871
:101C70001344054A1360FB6818461837BD4680BDFB
:101C80000040002000040000CC01002020030020C0
:101C900080B400AF064BD3F88830054A43F4700394
:101CA000C2F8883000BFBD465DF8047B704700BFB6
:101CB00000ED00E0DFF834D0FFF7EAFF0C480D49F3
:101CC0000D4A002302E0D458C4500433C4188C4297
:101CD000F9D30A4A0A4C002301E013600432A242FD
:101CE000FBD302F013FEFFF777FDFEE70040002074
:101CF000000000205C000020FC5200085C00002076
:101D00001C030020FEE7000080B500AF084B1B68F5
:101D1000074A43F010031360032000F031F90F204D
:101D200000F008F8FFF786FE0023184680BD00BFCC
:101D30000020024080B582B000AF7860124B1A6874
:101D4000124B1B7819464FF47A73B3FBF1F3B2FBD5
:101D5000F3F3184600F03BF90346002B01D00123B2
:101D60000EE07B680F2B0AD8002279684FF0FF3015
:101D700000F011F9064A7B681360002300E001239C
:101D800018460837BD4680BD00000020080000202E
:101D90000400002080B400AF064B1B781A46064BA7
:101DA0001B681344044A136000BFBD465DF8047B02
:101DB000704700BF08000020D001002080B400AFB1
:101DC000034B1B681846BD465DF8047B704700BF97
:101DD000D001002080B584B000AF7860FFF7EEFF3F
:101DE000B8607B68FB60FB68B3F1FF3F05D00A4B2E
:101DF0001B781A46FB681344FB6000BFFFF7DEFF49
:101E00000246BB68D31AFA689A42F7D800BF00BFEF
:101E10001037BD4680BD00BF0800002080B485B0EB
:101E200000AF78607B6803F00703FB600C4BDB6856
:101E3000BB60BA684FF6FF031340BB60FB681A0231
:101E4000BB68134343F0BF6343F40033BB60044AF1
:101E5000BB68D36000BF1437BD465DF8047B704794
:101E600000ED00E080B400AF044BDB681B0A03F018
:101E700007031846BD465DF8047B704700ED00E09F
:101E800080B483B000AF03463960FB7197F9073027
:101E9000002B0ADB3B68DAB20C4997F907301201D4
:101EA000D2B20B4483F800230AE03B68DAB2084957
:101EB000FB7903F00F03043B1201D2B20B441A76F4
:101EC00000BF0C37BD465DF8047B704700E100E0C1
:101ED00000ED00E080B489B000AFF860B9607A60CE
:101EE000FB6803F00703FB61FB69C3F10703042BE5
:101EF00028BF0423BB61FB690433062B02D9FB69AD
:101F0000033B00E000237B614FF0FF32BB6902FA24
:101F100003F3DA43BB681A407B699A404FF0FF3104
:101F20007B6901FA03F3D9437B680B4013431846DE
:101F30002437BD465DF8047B7047000080B582B051
:101F400000AF78607B68013BB3F1807F01D3012350
:101F50000FE00A4A7B68013B53600F214FF0FF30CE
:101F6000FFF78EFF054B00229A60044B07221A6090
:101F7000002318460837BD4680BD00BF10E000E0D2
:101F800080B582B000AF78607868FFF747FF00BF88
:101F90000837BD4680BD80B586B000AF0346B96046
:101FA0007A60FB7300237B61FFF75CFF78617A68DE
:101FB000B9687869FFF78EFF024697F90F3011462E
:101FC0001846FFF75DFF00BF1837BD4680BD80B5DE
:101FD00082B000AF78607868FFF7B0FF034618461C
:101FE0000837BD4680BD000080B487B000AF786080
:101FF000396000237B614EE13B681A6801217B69EF
:1020000001FA03F31340FB60FB68002B00F04081F2
:102010003B685B6803F00303012B05D03B685B68FA
:1020200003F00303022B30D17B689B683B617B6923
:102030005B00032202FA03F3DB433A6913403B617E
:102040003B68DA687B695B0002FA03F33A69134381
:102050003B617B683A699A607B685B683B610122FF
:102060007B6902FA03F3DB433A6913403B613B6847
:102070005B681B0903F001027B6902FA03F33A690A
:1020800013433B617B683A695A603B685B6803F0C5
:102090000303032B17D07B68DB683B617B695B0024
:1020A000032202FA03F3DB433A6913403B613B68C6
:1020B0009A687B695B0002FA03F33A6913433B6158
:1020C0007B683A69DA603B685B6803F00303022BC4
:1020D00023D17B69DA087B68083253F822303B61F0
:1020E0007B6903F007039B000F2202FA03F3DB4333
:1020F0003A6913403B613B681A697B6903F0070347
:102100009B0002FA03F33A6913433B617B69DA08E7
:102110007B680832396943F822107B681B683B6191
:102120007B695B00032202FA03F3DB433A69134045
:102130003B613B685B6803F003027B695B0002FA6A
:1021400003F33A6913433B617B683A691A603B6861
:102150005B6803F44033002B00F09A80554B9B6979
:10216000544A43F001039361524B9B6903F001030E
:10217000BB60BB68504A7B699B08023352F823302E
:102180003B617B6903F003039B000F2202FA03F318
:10219000DB433A6913403B617B68B3F1904F13D046
:1021A0007B68464A93420DD07B68454A934207D0EC
:1021B0007B68444A934201D1032306E0052304E0EF
:1021C000022302E0012300E000237A6902F0030207
:1021D000920093403A6913433B6137497B699B08FE
:1021E00002333A6941F82320374B9B683B61FB6817
:1021F000DB433A6913403B613B685B6803F480133F
:10220000002B03D03A69FB6813433B612E4A3B69BC
:1022100093602D4BDB683B61FB68DB433A691340FD
:102220003B613B685B6803F40013002B03D03A6901
:10223000FB6813433B61244A3B69D360224B5B68D4
:102240003B61FB68DB433A6913403B613B685B6879
:1022500003F40033002B03D03A69FB6813433B615E
:10226000194A3B695360184B1B683B61FB68DB43B1
:102270003A6913403B613B685B6803F48033002B91
:1022800003D03A69FB6813433B610F4A3B69136013
:102290007B6901337B613B681A687B6922FA03F32F
:1022A000002B7FF4A9AE00BF00BF1C37BD465DF810
:1022B000047B704700100240000001400004004809
:1022C00000080048000C00480004014080B483B0BE
:1022D00000AF78600B467B8013467B707B78002BC9
:1022E00003D07A887B689A6102E07A887B689A6278
:1022F00000BF0C37BD465DF8047B704780B5ADF577
:10230000007D00AF07F50073A3F5FE73186007F5B5
:102310000073A3F5FE731B68002B02D1012301F0AB
:1023200023B807F50073A3F5FE731B681B6803F061
:102330000103002B00F07D81BC4B5B6803F00C03B4
:10234000042B0CD0B94B5B6803F00C03082B5CD159
:10235000B64B5B6803F48033B3F5803F55D14FF43F
:102360000033C7F8F031D7F8F03193FAA3F3C7F888
:10237000EC31D7F8EC31B3FA83F3DBB25B09DBB2B3
:1023800043F00103DBB2012B02D1A84B1B6815E01F
:102390004FF40033C7F8E831D7F8E83193FAA3F3E4
:1023A000C7F8E4314FF40033C7F8E031D7F8E03133
:1023B00093FAA3F3C7F8DC319C4B5B6A4FF400320D
:1023C000C7F8D821D7F8D82192FAA2F2C7F8D421B9
:1023D000D7F8D421B2FA82F2D2B242F02002D2B2BD
:1023E00002F01F02012101FA02F21340002B00F05B
:1023F0001F8107F50073A3F5FE731B685B68002B54
:1024000040F01681012300F0AFBF07F50073A3F57C
:10241000FE731B685B68B3F5803F06D1834B1B6876
:10242000824A43F48033136036E007F50073A3F566
:10243000FE731B685B68002B0CD17C4B1B687B4ACE
:1024400023F480331360794B1B68784A23F480238C
:10245000136021E007F50073A3F5FE731B685B684A
:10246000B3F5A02F0CD1714B1B68704A43F4802345
:1024700013606E4B1B686D4A43F4803313600BE0AE
:102480006A4B1B68694A23F480331360674B1B68EF
:10249000664A23F480231360644BDB6A23F00F0247
:1024A00007F50073A3F5FE731B689B685F49134330
:1024B000CB6207F50073A3F5FE731B685B68002B06
:1024C00059D0FFF77BFCC7F8F8010AE0FFF776FC6C
:1024D0000246D7F8F831D31A642B02D9032300F04F
:1024E00043BF4FF40033C7F8D031D7F8D03193FA57
:1024F000A3F3C7F8CC31D7F8CC31B3FA83F3DBB20E
:102500005B09DBB243F00103DBB2012B02D1474B85
:102510001B6815E04FF40033C7F8C831D7F8C8314D
:1025200093FAA3F3C7F8C4314FF40033C7F8C031AE
:10253000D7F8C03193FAA3F3C7F8BC313B4B5B6AC1
:102540004FF40032C7F8B821D7F8B82192FAA2F2B6
:10255000C7F8B421D7F8B421B2FA82F2D2B242F06D
:102560002002D2B202F01F02012101FA02F213404E
:10257000002BABD05DE0FFF721FCC7F8F8010AE0C3
:10258000FFF71CFC0246D7F8F831D31A642B02D9A6
:10259000032300F0E9BE4FF40033C7F8B031D7F899
:1025A000B03193FAA3F3C7F8AC31D7F8AC31B3FA32
:1025B00083F3DBB25B09DBB243F00103DBB2012B37
:1025C00002D11A4B1B6815E04FF40033C7F8A8314D
:1025D000D7F8A83193FAA3F3C7F8A4314FF4003326
:1025E000C7F8A031D7F8A03193FAA3F3C7F89C310C
:1025F0000E4B5B6A4FF40032C7F89821D7F8982148
:1026000092FAA2F2C7F89421D7F89421B2FA82F292
:10261000D2B242F02002D2B202F01F02012101FA2E
:1026200002F21340002BABD103E000BF00100240C8
:1026300000BF07F50073A3F5FE731B681B6803F06A
:102640000203002B00F07D81A64B5B6803F00C03B6
:10265000002B0BD0A34B5B6803F00C03082B72D14B
:10266000A04B5B6803F48033002B6CD10223C7F8C6
:102670009031D7F8903193FAA3F3C7F88C31D7F89B
:102680008C31B3FA83F3DBB25B09DBB243F00103B5
:10269000DBB2012B02D1934B1B6813E00223C7F876
:1026A0008831D7F8883193FAA3F3C7F8843102232D
:1026B000C7F88031D7F8803193FAA3F3C7F87C319B
:1026C000884B5B6A0222C7F87821D7F8782192FA02
:1026D000A2F2C7F87421D7F87421B2FA82F2D2B20A
:1026E00042F02002D2B202F01F02012101FA02F2EE
:1026F0001340002B0AD007F50073A3F5FE731B6887
:102700001B69012B02D0012300F02EBE754B1B6804
:1027100023F0F80207F50073A3F5FE731B685B69ED
:10272000F821C7F87011D7F8701191FAA1F1C7F824
:102730006C11D7F86C11B1FA81F1C9B28B406949BB
:1027400013430B60FDE007F50073A3F5FE731B68F0
:102750001B69002B00F088800123C7F86831D7F887
:10276000683193FAA3F3C7F86431D7F86431B3FA48
:1027700083F3DBB203F1845303F584139B001A4601
:1027800001231360FFF71AFBC7F8F8010AE0FFF70F
:1027900015FB0246D7F8F831D31A022B02D90323CE
:1027A00000F0E2BD0223C7F86031D7F8603193FA38
:1027B000A3F3C7F85C31D7F85C31B3FA83F3DBB22B
:1027C0005B09DBB243F00103DBB2012B02D1454BC5
:1027D0001B6813E00223C7F85831D7F8583193FA31
:1027E000A3F3C7F854310223C7F85031D7F850315A
:1027F00093FAA3F3C7F84C313A4B5B6A0222C7F84D
:102800004821D7F8482192FAA2F2C7F84421D7F814
:102810004421B2FA82F2D2B242F02002D2B202F0E5
:102820001F02012101FA02F21340002BAFD02D4B01
:102830001B6823F0F80207F50073A3F5FE731B680D
:102840005B69F821C7F84011D7F8401191FAA1F15E
:10285000C7F83C11D7F83C11B1FA81F1C9B28B40ED
:10286000204913430B606CE00123C7F83831D7F8D7
:10287000383193FAA3F3C7F83431D7F83431B3FAC7
:1028800083F3DBB203F1845303F584139B001A46F0
:1028900000231360FFF792FAC7F8F8010AE0FFF788
:1028A0008DFA0246D7F8F831D31A022B02D9032346
:1028B00000F05ABD0223C7F83031D7F8303193FA0F
:1028C000A3F3C7F82C31D7F82C31B3FA83F3DBB27A
:1028D0005B09DBB243F00103DBB2012B04D1014BF6
:1028E0001B6815E0001002400223C7F82831D7F812
:1028F000283193FAA3F3C7F824310223C7F8203113
:10290000D7F8203193FAA3F3C7F81C31C84B5B6AA0
:102910000222C7F81821D7F8182192FAA2F2C7F8B4
:102920001421D7F81421B2FA82F2D2B242F0200276
:10293000D2B202F01F02012101FA02F21340002B71
:10294000ADD107F50073A3F5FE731B681B6803F098
:102950000803002B00F0108107F50073A3F5FE7348
:102960001B689B69002B79D00123C7F81031D7F879
:10297000103193FAA3F3C7F80C31D7F80C31B3FA3E
:1029800083F3DBB21A46AB4B13449B001A46012378
:102990001360FFF713FAC7F8F8010AE0FFF70EFA21
:1029A0000246D7F8F831D31A022B02D9032300F0DC
:1029B000DBBC0223C7F80831D7F8083193FAA3F338
:1029C000C7F8043107F50073A3F5807302221A607B
:1029D00007F50073A3F580731B6893FAA3F207F55C
:1029E0000073A3F582731A6007F50073A3F584736F
:1029F00002221A6007F50073A3F584731B6893FA2B
:102A0000A3F207F50073A3F586731A60884B5A6A20
:102A100007F50073A3F588730221196007F50073A9
:102A2000A3F588731B6893FAA3F107F50073A3F568
:102A30008A73196007F50073A3F58A731B68B3FAEC
:102A400083F3DBB243F06003DBB203F01F03012129
:102A500001FA03F31340002BA0D08DE007F50073BB
:102A6000A3F58C7301221A6007F50073A3F58C732C
:102A70001B6893FAA3F207F50073A3F58E731A602F
:102A800007F50073A3F58E731B68B3FA83F3DBB20B
:102A90001A46684B13449B001A4600231360FFF745
:102AA0008DF9C7F8F8010AE0FFF788F90246D7F870
:102AB000F831D31A022B02D9032300F055BC07F5D5
:102AC0000073A3F5907302221A6007F50073A3F553
:102AD00090731B6893FAA3F207F50073A3F5927342
:102AE0001A6007F50073A3F5947302221A6007F5C4
:102AF0000073A3F594731B6893FAA3F207F50073B0
:102B0000A3F596731A6007F50073A3F59873022274
:102B10001A6007F50073A3F598731B6893FAA3F284
:102B200007F50073A3F59A731A60414B5A6A07F5CB
:102B30000073A3F59C730221196007F50073A3F5D8
:102B40009C731B6893FAA3F107F50073A3F59E73BA
:102B5000196007F50073A3F59E731B68B3FA83F33E
:102B6000DBB243F06003DBB203F01F03012101FA83
:102B700003F31340002B97D107F50073A3F5FE7301
:102B80001B681B6803F00403002B00F0A1810023E5
:102B900087F8FF31264BDB6903F08053002B16D1F9
:102BA000234BDB69224A43F08053D361204BDB691E
:102BB00003F0805207F50073A3F5FC731A6007F564
:102BC0000073A3F5FC731B68012387F8FF311A4BD0
:102BD0001B6803F48073002B1AD1174B1B68164A2D
:102BE00043F480731360FFF7E9F8C7F8F80109E0D0
:102BF000FFF7E4F80246D7F8F831D31A642B01D96D
:102C00000323B1E30C4B1B6803F48073002BEFD05C
:102C100007F50073A3F5FE731B68DB68012B0DD16C
:102C2000034B1B6A024A43F0010313623CE000BFFE
:102C300000100240208190100070004007F50073E2
:102C4000A3F5FE731B68DB68002B0CD1C14B1B6A1C
:102C5000C04A23F001031362BE4B1B6ABD4A23F036
:102C60000403136220E007F50073A3F5FE731B68ED
:102C7000DB68052B0CD1B74B1B6AB64A43F0040343
:102C80001362B44B1B6AB34A43F0010313620BE0B7
:102C9000B04B1B6AAF4A23F001031362AD4B1B6AB2
:102CA000AC4A23F00403136207F50073A3F5FE7327
:102CB0001B68DB68002B00F08180FFF77FF8C7F806
:102CC000F8010BE0FFF77AF80246D7F8F831D31A8B
:102CD00041F28832934201D9032345E307F500739B
:102CE000A3F5A07302221A6007F50073A3F5A07381
:102CF0001B6893FAA3F207F50073A3F5A2731A6099
:102D000007F50073A3F5A47302221A6007F5007398
:102D1000A3F5A4731B6893FAA3F207F50073A3F558
:102D2000A6731A6007F50073A3F5A6731B68B3FAC0
:102D300083F3DBB25B09DBB243F00203DBB2022BAD
:102D400002D1844B1B6A13E007F50073A3F5A87347
:102D500002221A6007F50073A3F5A8731B6893FAA3
:102D6000A3F207F50073A3F5AA731A60794B5B6AA7
:102D700007F50072A2F5AC720221116007F500722E
:102D8000A2F5AC72126892FAA2F107F50072A2F5F0
:102D9000AE72116007F50072A2F5AE721268B2FA57
:102DA00082F2D2B242F04002D2B202F01F020121FE
:102DB00001FA02F21340002B84D07FE0FEF7FEFF01
:102DC000C7F8F8010BE0FEF7F9FF0246D7F8F83133
:102DD000D31A41F28832934201D90323C4E207F5A2
:102DE0000073A3F5B07302221A6007F50073A3F510
:102DF000B0731B6893FAA3F207F50073A3F5B273DF
:102E00001A6007F50073A3F5B47302221A6007F580
:102E10000073A3F5B4731B6893FAA3F207F500736C
:102E2000A3F5B6731A6007F50073A3F5B6731B68B4
:102E3000B3FA83F3DBB25B09DBB243F00203DBB22C
:102E4000022B02D1434B1B6A13E007F50073A3F575
:102E5000B87302221A6007F50073A3F5B8731B68F4
:102E600093FAA3F207F50073A3F5BA731A60394B0E
:102E70005B6A07F50072A2F5BC720221116007F5CA
:102E80000072A2F5BC72126892FAA2F107F5007204
:102E9000A2F5BE72116007F50072A2F5BE7212684B
:102EA000B2FA82F2D2B242F04002D2B202F01F0273
:102EB000012101FA02F21340002B84D197F8FF316F
:102EC000012B05D1234BDB69224A23F08053D361C8
:102ED00007F50073A3F5FE731B68DB69002B00F098
:102EE00042821C4B5B6803F00C03082B00F013823A
:102EF00007F50073A3F5FE731B68DB69022B40F036
:102F0000628107F50073A3F5C0734FF080721A60F9
:102F100007F50073A3F5C0731B6893FAA3F207F5D6
:102F20000073A3F5C2731A6007F50073A3F5C273AB
:102F30001B68B3FA83F3DBB203F1845303F5841304
:102F40009B001A4600231360FEF738FFC7F8F8010C
:102F50000CE000BF00100240FEF730FF0246D7F839
:102F6000F831D31A022B01D90323FDE107F50073D1
:102F7000A3F5C4734FF000721A6007F50073A3F550
:102F8000C4731B6893FAA3F207F50073A3F5C67325
:102F90001A6007F50073A3F5C6731B68B3FA83F3D1
:102FA000DBB25B09DBB243F00103DBB2012B02D1E0
:102FB000B04B1B6827E007F50073A3F5C8734FF00B
:102FC00000721A6007F50073A3F5C8731B6893FAC3
:102FD000A3F207F50073A3F5CA731A6007F500732F
:102FE000A3F5CC734FF000721A6007F50073A3F5D8
:102FF000CC731B6893FAA3F207F50073A3F5CE73A5
:103000001A609C4B5B6A07F50072A2F5D0724FF014
:103010000071116007F50072A2F5D072126892FA81
:10302000A2F107F50072A2F5D272116007F50072E5
:10303000A2F5D2721268B2FA82F2D2B242F0200243
:10304000D2B202F01F02012101FA02F21340002B5A
:1030500082D1884B5B6823F4741207F50073A3F5E3
:10306000FE731B68596A07F50073A3F5FE731B68AE
:103070001B6A0B437F4913434B6007F50073A3F5AD
:10308000D4734FF080721A6007F50073A3F5D47300
:103090001B6893FAA3F207F50073A3F5D6731A60C1
:1030A00007F50073A3F5D6731B68B3FA83F3DBB29D
:1030B00003F1845303F584139B001A460123136024
:1030C000FEF77CFEC7F8F80109E0FEF777FE02463E
:1030D000D7F8F831D31A022B01D9032344E107F5BD
:1030E0000073A3F5D8734FF000721A6007F50073F0
:1030F000A3F5D8731B6893FAA3F207F50073A3F541
:10310000DA731A6007F50073A3F5DA731B68B3FA74
:1031100083F3DBB25B09DBB243F00103DBB2012BCB
:1031200002D1544B1B6827E007F50073A3F5DC734D
:103130004FF000721A6007F50073A3F5DC731B688B
:1031400093FAA3F207F50073A3F5DE731A6007F58F
:103150000073A3F5E0734FF000721A6007F5007377
:10316000A3F5E0731B6893FAA3F207F50073A3F5C8
:10317000E2731A603F4B5B6A07F50072A2F5E472D6
:103180004FF00071116007F50072A2F5E472126849
:1031900092FAA2F107F50072A2F5E672116007F546
:1031A0000072A2F5E6721268B2FA82F2D2B242F06E
:1031B0002002D2B202F01F02012101FA02F21340F2
:1031C000002B82D0CFE007F50073A3F5E8734FF032
:1031D00080721A6007F50073A3F5E8731B6893FA11
:1031E000A3F207F50073A3F5EA731A6007F50073FD
:1031F000A3F5EA731B68B3FA83F3DBB203F18453DC
:1032000003F584139B001A4600231360FEF7D6FDD6
:10321000C7F8F80109E0FEF7D1FD0246D7F8F8310A
:10322000D31A022B01D903239EE007F50073A3F5FF
:10323000EC734FF000721A6007F50073A3F5EC739E
:103240001B6893FAA3F207F50073A3F5EE731A60F7
:1032500007F50073A3F5EE731B68B3FA83F3DBB2D3
:103260005B09DBB243F00103DBB2012B04D1014B5C
:103270001B6829E00010024007F50073A3F5F07306
:103280004FF000721A6007F50073A3F5F0731B6826
:1032900093FAA3F207F50073A3F5F2731A6007F52A
:1032A0000073A3F5F4734FF000721A6007F5007312
:1032B000A3F5F4731B6893FAA3F207F50073A3F563
:1032C000F6731A602B4B5B6A07F50072A2F5F87271
:1032D0004FF00071116007F50072A2F5F8721268E4
:1032E00092FAA2F107F50072A2F5FA72116007F5E1
:1032F0000072A2F5FA721268B2FA82F2D2B242F009
:103300002002D2B202F01F02012101FA02F21340A0
:10331000002B80D127E007F50073A3F5FE731B682F
:10332000DB69012B01D101231EE0124B5B68C7F85A
:10333000F431D7F8F43103F4803207F50073A3F5C4
:10334000FE731B681B6A9A420BD1D7F8F43103F461
:10335000701207F50073A3F5FE731B685B6A9A424F
:1033600001D0012300E00023184607F50077BD4691
:1033700080BD00BF0010024080B59EB000AF7860F5
:10338000396000237B677B68002B01D1012362E158
:10339000904B1B6803F007033A689A4210D98D4B93
:1033A0001B6823F007028B493B6813430B60894B72
:1033B0001B6803F007033A689A4201D001234AE1EF
:1033C0007B681B6803F00203002B08D0824B5B680C
:1033D00023F0F0027B689B687F4913434B607B6856
:1033E0001B6803F00103002B00F0DC807B685B6846
:1033F000012B3CD14FF400333B673B6F93FAA3F3AF
:10340000FB66FB6EB3FA83F3DBB25B09DBB243F01E
:103410000103DBB2012B02D16F4B1B680FE04FF4AD
:103420000033BB66BB6E93FAA3F37B664FF40033A5
:103430003B663B6E93FAA3F3FB65674B5B6A4FF405
:103440000032BA65BA6D92FAA2F27A657A6DB2FA72
:1034500082F2D2B242F02002D2B202F01F02012167
:1034600001FA02F21340002B7BD10123F3E07B68C9
:103470005B68022B3CD14FF000733B653B6D93FAC8
:10348000A3F3FB64FB6CB3FA83F3DBB25B09DBB23F
:1034900043F00103DBB2012B02D14F4B1B680FE05D
:1034A0004FF00073BB64BB6C93FAA3F37B644FF0E3
:1034B00000733B643B6C93FAA3F3FB63464B5B6A7C
:1034C0004FF00072BA63BA6B92FAA2F27A637A6B27
:1034D000B2FA82F2D2B242F02002D2B202F01F025D
:1034E000012101FA02F21340002B3AD10123B2E08C
:1034F00002233B633B6B93FAA3F3FB62FB6AB3FAD1
:1035000083F3DBB25B09DBB243F00103DBB2012BD7
:1035100002D1314B1B680DE00223BB62BB6A93FAF8
:10352000A3F37B6202233B623B6A93FAA3F3FB6142
:10353000294B5B6A0222BA61BA6992FAA2F27A61F5
:103540007A69B2FA82F2D2B242F02002D2B202F02A
:103550001F02012101FA02F21340002B01D10123C5
:1035600079E01D4B5B6823F003027B685B681A49B6
:1035700013434B60FEF722FC78670AE0FEF71EFC5F
:1035800002467B6FD31A41F28832934201D903235A
:1035900061E0114B5B6803F00C027B685B689B0089
:1035A0009A42EBD10B4B1B6803F007033A689A422F
:1035B00014D2084B1B6823F0070206493B681343EB
:1035C0000B60044B1B6803F007033A689A4205D06E
:1035D000012340E000200240001002407B681B688D
:1035E00003F00403002B08D01D4B5B6823F4E0625A
:1035F0007B68DB681A4913434B607B681B6803F0E8
:103600000803002B09D0164B5B6823F460527B68DB
:103610001B69DB00124913434B6000F029F8014697
:103620000F4B5B6803F0F003F0223A613A6992FABB
:10363000A2F2FA60FA68B2FA82F2D2B2D340094A30
:10364000D35C21FA03F3084A1360084B1B68184641
:10365000FEF770FB002318467837BD4680BD00BFDB
:1036600000100240805200080000002004000020EA
:1036700080B487B000AF0023FB600023BB60002351
:103680007B6100237B6000233B611E4B5B68FB601A
:10369000FB6803F00C03042B02D0082B03D026E0B8
:1036A000194B3B6126E0FB689B0C03F00F03174AA4
:1036B000D35C7B60134BDB6A03F00F03144AD35CCB
:1036C000BB60FB6803F48033002B08D00E4ABB6854
:1036D000B2FBF3F27B6802FB03F37B6104E07B68DF
:1036E0000C4A02FB03F37B617B693B6102E0064B02
:1036F0003B6100BF3B6918461C37BD465DF8047B43
:10370000704700BF0010024000127A009852000873
:10371000A852000800093D0080B400AF034B1B68AD
:103720001846BD465DF8047B704700BF00000020CE
:1037300080B582B000AFFFF7EFFF01460B4B5B682F
:1037400003F4E0634FF4E0627A607A6892FAA2F2DE
:103750003A603A68B2FA82F2D2B2D340044AD35CF9
:1037600021FA03F318460837BD4680BD0010024019
:103770009052000880B582B000AFFFF7CDFF014640
:103780000B4B5B6803F460534FF460527A607A68C5
:1037900092FAA2F23A603A68B2FA82F2D2B2D34016
:1037A000044AD35C21FA03F318460837BD4680BDAE
:1037B000001002409052000880B584B000AF7860DD
:1037C0007B68002B01D101239DE07B685B6A002BA5
:1037D00008D17B685B68B3F5827F09D07B680022E3
:1037E000DA6105E07B6800221A617B6800225A6179
:1037F0007B6800229A627B6893F85D30DBB2002B15
:1038000006D17B68002283F85C207868FEF736F9E1
:103810007B68022283F85D207B681B681A687B68DE
:103820001B6822F040021A607B68DB68B3F5E06F2A
:1038300002D90023FB6002E04FF48053FB607B68F9
:10384000DB68B3F5706F07D07B68DB68B3F5E06FBA
:1038500002D07B6800229A627B685B6803F4827204
:103860007B689B6803F404431A437B681B6903F07D
:1038700002031A437B685B6903F001031A437B6808
:103880009B6903F400731A437B68DB6903F0380318
:103890001A437B681B6A03F0800342EA03017B68DA
:1038A0009B6A03F400527B681B680A431A607B68BA
:1038B0009B691B0C03F004027B685B6A03F0100336
:1038C0001A437B685B6B03F008031A437B68DB6871
:1038D00003F4706342EA0301FB6803F480527B68DF
:1038E0001B680A435A607B681B68DA697B681B683F
:1038F00022F40062DA617B6800221A667B6801228A
:1039000083F85D20002318461037BD4680BD80B582
:1039100088B000AFF860B9603B601346FB800023BD
:10392000FB77FB6893F85C30012B01D102235FE148
:10393000FB68012283F85C20FEF740FAB861FB883F
:10394000FB82FB6893F85D30DBB2012B02D00223CF
:10395000FB7748E1BB68002B02D0FB88002B02D12B
:103960000123FB773FE1FB68032283F85D20FB68BE
:1039700000221A66FB68BA689A63FB68FA889A871D
:10398000FB68FA88DA87FB6800221A64FB68002269
:10399000A3F84420FB680022A3F84620FB6800221D
:1039A0001A65FB680022DA64FB689B68B3F5004F78
:1039B0000FD1FB681B681A68FB681B6822F0400285
:1039C0001A60FB681B681A68FB681B6842F4804237
:1039D0001A60FB681B681B6803F04003402B07D08C
:1039E000FB681B681A68FB681B6842F040021A609B
:1039F000FB68DB68B3F5E06F4FD9FB685B68002BB1
:103A000002D0FB8A012B42D1FB689B6B1A88FB68B2
:103A10001B68DA60FB689B6B9A1CFB689A63FB6807
:103A2000DB8F9BB2013B9AB2FB68DA872FE0FB6821
:103A30001B689B6803F00203022B12D1FB689B6B8F
:103A40001A88FB681B68DA60FB689B6B9A1CFB6832
:103A50009A63FB68DB8F9BB2013B9AB2FB68DA8703
:103A600015E0FEF7ABF90246BB69D31A3A689A42F1
:103A700003D83B68B3F1FF3F02D13B68002B06D16E
:103A80000323FB77FB68012283F85D20ABE0FB6832
:103A9000DB8F9BB2002BCAD180E0FB685B68002BF8
:103AA00002D0FB8A012B74D1FB68DB8F9BB2012B08
:103AB00012D9FB689B6B1A88FB681B68DA60FB688D
:103AC0009B6B9A1CFB689A63FB68DB8F9BB2023B83
:103AD0009AB2FB68DA875CE0FB689A6BFB681B684C
:103AE0000C3312781A70FB689B6B5A1CFB689A6344
:103AF000FB68DB8F9BB2013B9AB2FB68DA8748E038
:103B0000FB681B689B6803F00203022B2BD1FB6848
:103B1000DB8F9BB2012B12D9FB689B6B1A88FB6869
:103B20001B68DA60FB689B6B9A1CFB689A63FB68F6
:103B3000DB8F9BB2023B9AB2FB68DA8729E0FB6815
:103B40009A6BFB681B680C3312781A70FB689B6BCE
:103B50005A1CFB689A63FB68DB8F9BB2013B9AB2ED
:103B6000FB68DA8715E0FEF729F90246BB69D31A2C
:103B70003A689A4203D83B68B3F1FF3F02D13B68F1
:103B8000002B06D10323FB77FB68012283F85D201D
:103B900029E0FB68DB8F9BB2002BB1D1BA69396891
:103BA000F86800F047F90346002B02D0FB6820229A
:103BB0001A66FB689B68002B0AD100233B61FB68F7
:103BC0001B68DB683B61FB681B689B683B613B696A
:103BD000FB681B6E002B02D00123FB7703E0FB6820
:103BE000012283F85D20FB68002283F85C20FB7FC4
:103BF00018462037BD4680BD80B588B000AFF8605C
:103C0000B9603B601346FB71FEF7D8F80246BB6A09
:103C10009B1A3A681344FB61FEF7D0F8B861394B40
:103C20001B685B011B0DFA6902FB03F37B6154E027
:103C30003B68B3F1FF3F50D0FEF7C0F80246BB69C6
:103C4000D31AFA699A4202D9FB69002B3DD1FB686D
:103C50001B685A68FB681B6822F0E0025A60FB6828
:103C60005B68B3F5827F11D1FB689B68B3F5004FA9
:103C700004D0FB689B68B3F5806F07D1FB681B68B5
:103C80001A68FB681B6822F040021A60FB689B6A96
:103C9000B3F5005F0FD1FB681B681A68FB681B68EF
:103CA00022F400521A60FB681B681A68FB681B68E4
:103CB00042F400521A60FB68012283F85D20FB6821
:103CC000002283F85C20032317E07B69002B01D1DD
:103CD0000023FB617B69013B7B61FB681B689A6881
:103CE000BB681340BA689A420CBF01230023DBB2C1
:103CF0001A46FB799A429BD1002318462037BD46CD
:103D000080BD00BF0000002080B58AB000AFF86021
:103D1000B9607A603B600023FB75FEF74FF80246FE
:103D20003B6B9B1A3A6813447B62FEF747F8386294
:103D3000FB681B680C33FB613D4B1A6813469B0004
:103D40001344DA00D31A1B0D7A6A02FB03F3BB613A
:103D500060E0BB68B3F5C06F07D17B68002B04D16E
:103D6000FB691B78DBB2FB75FB7D3B68B3F1FF3F62
:103D700050D0FEF723F802463B6AD31A7A6A9A4279
:103D800002D97B6A002B3DD1FB681B685A68FB682F
:103D90001B6822F0E0025A60FB685B68B3F5827F23
:103DA00011D1FB689B68B3F5004F04D0FB689B689A
:103DB000B3F5806F07D1FB681B681A68FB681B6846
:103DC00022F040021A60FB689B6AB3F5005F0FD1D6
:103DD000FB681B681A68FB681B6822F400521A60B3
:103DE000FB681B681A68FB681B6842F400521A6083
:103DF000FB68012283F85D20FB68002283F85C20C9
:103E0000032310E0BB69002B01D100237B62BB6957
:103E1000013BBB61FB681B689A68BB6813407A680A
:103E20009A4296D1002318462837BD4680BD00BF70
:103E30000000002080B586B002AFF860B9607A60FB
:103E40007B680093BB6800224FF4C051F868FFF70D
:103E50005BFF0346002B07D0FB681B6E43F020027C
:103E6000FB681A66032327E07B680093BB68002287
:103E70008021F868FFF7C0FE0346002B07D0FB68DF
:103E80001B6E43F02002FB681A66032314E07B6874
:103E90000093BB6800224FF4C061F868FFF734FF5D
:103EA0000346002B07D0FB681B6E43F02002FB6823
:103EB0001A66032300E0002318461037BD4680BD74
:103EC00080B582B000AF78607B68002B01D1012300
:103ED00040E07B68DB6F002B06D17B68002283F813
:103EE00078207868FDF72CFE7B682422DA677B68EF
:103EF0001B681A687B681B6822F001021A607B68E5
:103F00005B6A002B02D0786800F0E8F9786800F06E
:103F1000AFF80346012B01D101231BE07B681B682E
:103F20005A687B681B6822F490425A607B681B6861
:103F30009A687B681B6822F02A029A607B681B687B
:103F40001A687B681B6842F001021A60786800F00A
:103F500067FA034618460837BD4680BD80B58AB06B
:103F600002AFF860B9603B601346FB80FB68DB6F13
:103F7000202B77D1BB68002B02D0FB88002B01D10E
:103F8000012370E0FB680022C3F88420FB68212233
:103F9000DA67FDF713FF7861FB68FA88A3F8502011
:103FA000FB68FA88A3F85220FB689B68B3F5805F32
:103FB00008D1FB681B69002B04D10023FB61BB689F
:103FC000BB6103E0BB68FB610023BB612FE03B6882
:103FD00000937B6900228021F86800F0C9FA03464B
:103FE000002B04D0FB682022DA6703233BE0FB6947
:103FF000002B0BD1BB691A88FB681B68C2F308024F
:1040000092B21A85BB690233BB6107E0FB691A787B
:10401000FB681B681A85FB690133FB61FB68B3F819
:1040200052309BB2013B9AB2FB68A3F85220FB6866
:10403000B3F852309BB2002BC9D13B6800937B6927
:1040400000224021F86800F093FA0346002B04D0C8
:10405000FB682022DA67032305E0FB682022DA6789
:10406000002300E0022318462037BD4680BD000033
:1040700080B588B000AF78600023BB777B689A6812
:104080007B681B691A437B685B691A437B68DB6941
:1040900013437B617B681B681A688A4B13407A68FC
:1040A000126879690B4313607B681B685B6823F4B3
:1040B00040517B68DA687B681B680A435A607B68FA
:1040C0009B697B617B681B6A7A6913437B617B68B0
:1040D0001B689B6823F430617B681B687A690A431C
:1040E0009A607B681B68784A934220D1774B1B6BA0
:1040F00003F00303032B17D801A252F823F000BFEB
:10410000114100081D410008234100081741000823
:104110000023FB771DE00223FB771AE00423FB77E3
:1041200017E00823FB7714E01023FB7711E07B688E
:104130001B68674A934202D10023FB7709E07B6842
:104140001B68644A934202D10023FB7701E01023ED
:10415000FB777B68DB69B3F5004F5AD1FB7F082BF7
:1041600027D801A252F823F08D410008954100089C
:104170009D410008B3410008A3410008B341000875
:10418000B3410008B3410008AB410008FFF7D0FA83
:10419000B86113E0FFF7EEFAB8610FE04E4BBB6178
:1041A0000CE0FFF765FAB86108E04FF40043BB612B
:1041B00004E00023BB610123BB7700BFBB69002B78
:1041C00074D0BB695A007B685B685B081A447B68E3
:1041D0005B68B2FBF3F33B613B690F2B16D93B697C
:1041E000B3F5803F12D23B699BB223F00F03FB81F2
:1041F0003B695B089BB203F007039AB2FB89134348
:10420000FB817B681B68FA89DA604FE00123BB778A
:104210004CE0FB7F082B28D801A252F823F000BF06
:10422000454200084D420008554200086B42000814
:104230005B4200086B4200086B4200086B420008BA
:1042400063420008FFF774FAB86113E0FFF792FACF
:10425000B8610FE0204BBB610CE0FFF709FAB861D1
:1042600008E04FF40043BB6104E00023BB6101237D
:10427000BB7700BFBB69002B18D07B685B685A080E
:10428000BB691A447B685B68B2FBF3F33B613B6933
:104290000F2B09D93B69B3F5803F05D23B699AB230
:1042A0007B681B68DA6001E00123BB777B68002232
:1042B0009A667B680022DA66BB7F18462037BD46C7
:1042C00080BD00BFF369FFEF0038014000100240DD
:1042D000004400400048004000127A0080B483B0DF
:1042E00000AF78607B685B6A03F00803002B0AD09C
:1042F0007B681B685B6823F400417B685A6B7B68B2
:104300001B680A435A607B685B6A03F00103002B59
:104310000AD07B681B685B6823F400317B689A6A6B
:104320007B681B680A435A607B685B6A03F0020380
:10433000002B0AD07B681B685B6823F480317B68A4
:10434000DA6A7B681B680A435A607B685B6A03F021
:104350000403002B0AD07B681B685B6823F4802170
:104360007B681A6B7B681B680A435A607B685B6AD0
:1043700003F01003002B0AD07B681B689B6823F4B2
:1043800080517B689A6B7B681B680A439A607B68E4
:104390005B6A03F02003002B0AD07B681B689B68D4
:1043A00023F400517B68DA6B7B681B680A439A60D0
:1043B0007B685B6A03F04003002B1AD07B681B68A4
:1043C0005B6823F480117B681A6C7B681B680A4366
:1043D0005A607B681B6CB3F5801F0AD17B681B6831
:1043E0005B6823F4C0017B685A6C7B681B680A43D6
:1043F0005A607B685B6A03F08003002B0AD07B68FD
:104400001B685B6823F400217B689A6C7B681B68DF
:104410000A435A6000BF0C37BD465DF8047B704705
:1044200080B598B002AF78607B680022C3F8842022
:10443000FDF7C4FC78657B681B681B6803F0080304
:10444000082B2ED16FF07E4300937B6D00224FF43A
:104450000011786800F08CF80346002B21D07B68AF
:104460001B68BB63BB6B53E8003F7B637B6B23F034
:1044700080033B657B681B681A463B6D7B643A642E
:10448000396C7A6C41E80023FB63FB6B002BE6D1AF
:104490007B682022DA677B68002283F87820032378
:1044A00062E07B681B681B6803F00403042B49D19E
:1044B0006FF07E4300937B6D00224FF4800178689B
:1044C00000F056F80346002B3CD07B681B687B62EB
:1044D0007B6A53E8003F3B623B6A23F49073FB64C2
:1044E0007B681B681A46FB6C3B63FA62F96A3A6B9D
:1044F00041E80023BB62BB6A002BE6D17B681B68E6
:1045000008333B613B6953E8003FFB60FB6823F0E5
:104510000103BB647B681B680833BA6CFA61BB613A
:10452000B969FA6941E800237B617B69002BE5D119
:104530007B682022C3F880207B68002283F87820E3
:10454000032311E07B682022DA677B682022C3F80E
:1045500080207B6800221A667B6800225A667B688E
:10456000002283F87820002318465837BD4680BDC6
:1045700080B584B000AFF860B9603B601346FB7152
:104580004FE0BB69B3F1FF3F4BD0FDF717FC02468C
:104590003B68D31ABA699A4202D3BB69002B01D196
:1045A00003234EE0FB681B681B6803F00403002B29
:1045B00037D0BB68802B34D0BB68402B31D0FB6830
:1045C0001B68DB6903F00803082B10D1FB681B682C
:1045D00008221A62F86800F038F8FB680822C3F86D
:1045E0008420FB68002283F87820012329E0FB68FF
:1045F0001B68DB6903F40063B3F5006F11D1FB683E
:104600001B684FF400621A62F86800F01EF8FB683D
:104610002022C3F88420FB68002283F8782003233B
:104620000FE0FB681B68DA69BB681340BA689A42FE
:104630000CBF01230023DBB21A46FB799A42A0D0BB
:10464000002318461037BD4680BD80B495B000AF3A
:1046500078607B681B687B637B6B53E8003F3B6340
:104660003B6B23F49073FB647B681B681A46FB6CFE
:104670003B64FA63F96B3A6C41E80023BB63BB6BA4
:10468000002BE6D17B681B6808333B623B6A53E82A
:10469000003FFB61FB6923F00103BB647B681B687F
:1046A0000833BA6CFA62BB62B96AFA6A41E800235D
:1046B0007B627B6A002BE5D17B681B6E012B18D1D6
:1046C0007B681B68FB60FB6853E8003FBB60BB680E
:1046D00023F010037B647B681B681A467B6CBB610C
:1046E0007A617969BA6941E800233B613B69002B33
:1046F000E6D17B682022C3F880207B6800221A66FE
:104700007B6800229A6600BF5437BD465DF8047B83
:1047100070470000024B0146186800F02DB800BF3A
:104720000C000020024B0146186800F015B900BFCC
:104730000C00002070B50F4E0C463168054611B9CB
:1047400000F0CEF830602146284600F0C9F8431C3E
:1047500003D14FF0FF34204670BDC41C24F0030485
:10476000A042F8D0211A284600F0BAF80130F2D160
:10477000EFE700BFD40100202DE9F843CD1C25F060
:10478000030508350C2D38BF0C25002D064601DB2E
:10479000A94204D90C2333600020BDE8F883DFF878
:1047A000D48000F069F8D8F800301C4644BB294694
:1047B0003046FFF7BFFF431C044658D1D8F80040ED
:1047C0002746002F43D1002C4BD023683946304672
:1047D00004EB030900F084F8814542D121686D1A89
:1047E00029463046FFF7A6FF01303AD023682B4414
:1047F0002360D8F800305A6862BBC8F800700FE038
:104800002268521B20D40B2A17D96119A3422560B4
:1048100018BF5960636808BFC8F8001062514B6048
:10482000304600F02FF804F10B00231D20F00700A4
:10483000C21A1CBF1B1AA350AFE76268A3420CBF89
:10484000C8F800205A60EBE723466468AEE73C46B0
:104850007F68B6E71A465B68A342FBD1002353602A
:10486000DEE70C233360304600F00CF894E7056077
:10487000D6E700BFD8010020014800F06BB800BFA8
:1048800018030020014800F066B800BF180300209C
:104890000EB400B59CB01DAB029006906FF00041C5
:1048A000094807910491094953F8042B05910068C0
:1048B000019302A900F0F6F8029B00221A701CB0C6
:1048C0005DF804EB03B070470C0000200802FFFF06
:1048D00002440346934200D1704703F8011BF9E7F5
:1048E00038B5064D0023044608462B60FDF79AF9BB
:1048F000431C02D12B6803B1236038BD1403002090
:10490000014B1868704700BF0C00002070B50D4DBA
:104910000D4C641BA4100026A64209D10B4D0C4C73
:1049200000F026FC641BA4100026A64205D170BD31
:1049300055F8043B98470136EEE755F8043B984795
:104940000136F2E7F4520008F4520008F45200086D
:10495000F85200087047704738B50546002941D025
:1049600051F8043C0C1F002BB8BFE418FFF784FF7C
:104970001D4A136833B9636014602846BDE83840A7
:10498000FFF780BFA34208D9206821188B4201BFDE
:1049900019685B6809182160EDE71A465B680BB17E
:1049A000A342FAD911685018A0420BD120680144E3
:1049B000501883421160E0D118685B685360084466
:1049C0001060DAE702D90C232B60D6E720682118A3
:1049D0008B4204BF19685B68636004BF09182160DB
:1049E0005460CAE738BD00BFD80100202DE9F04768
:1049F0008E681F46BE420B6882460C4690462DD8F4
:104A0000B1F90C2012F4906F26D06569096905EBA5
:104A10004505A3EB010905EBD5757B1C4B446D10D7
:104A20009D4238BF1D46530527D52946FFF7A4FEF2
:104A3000064660B321694A4600F0D8FAA38923F4F8
:104A4000906343F08003A381266165614E44A5EB2A
:104A500009052660A5603E46BE4200D93E46206854
:104A60003246414600F0A8FAA3689B1BA360236866
:104A7000334423600020BDE8F0872A4600F0C4FAE2
:104A800006460028E0D121695046FFF765FF0C2358
:104A9000CAF80030A38943F04003A3814FF0FF30F0
:104AA000E9E700002DE9F04F98468B891B069DB081
:104AB00007460D46144610D50B6973B94021FFF720
:104AC0005BFE2860286130B90C233B604FF0FF305B
:104AD0001DB0BDE8F08F40236B61002309932023B4
:104AE0008DF82930CDF80C803023DFF89C818DF8CB
:104AF0002A304FF0010923469A4613F8012B0AB1D8
:104B0000252AF9D1BAEB040B0BD05B462246294685
:104B10003846FFF76BFF013000F0A780099A5A442E
:104B200009929AF80030002B00F09F8000234FF08C
:104B3000FF32CDE905230AF1010A049307938DF8AA
:104B400053301A935446052214F8011B4E48FBF7C4
:104B50003FFB049AD8B9D00644BF20238DF85330C8
:104B6000110744BF2B238DF853309AF800302A2BBD
:104B700015D0079A544600204FF00A0C214611F830
:104B8000013B303B092B4BD9B0B1079214E0A0EBAD
:104B9000080309FA03F313430493A246D2E7039BE5
:104BA000191D1B680391002BBBBF5B4242F0020240
:104BB00007930793B8BF049223782E2B0AD163780A
:104BC0002A2B32D1039B1A1D1B68039243EAE3731D
:104BD00002340593DFF8C0A0217803225046FBF78A
:104BE000F7FA38B1049BA0EB0A004022824013433D
:104BF0000134049314F8011B24488DF82810062270
:104C0000FBF7E6FA002836D0214B1BBB039B07338A
:104C100023F0070308330393099B334409936AE79E
:104C20000CFB02320C460120A8E700230134059357
:104C300019464FF00A0C204610F8012B303A092A89
:104C400003D9002BC6D00591C4E70CFB0121044613
:104C50000123F0E703AB00932A460E4B04A9384624
:104C6000AFF30080421C0646D6D1AB895B063FF508
:104C70002DAF09982CE703AB00932A46054B04A9F6
:104C8000384600F079F8EDE7B8520008C252000843
:104C900000000000ED490008BE5200082DE9F04771
:104CA000164698468A680B69DDF820909342B8BF93
:104CB0001346336091F8432007460C460AB101338E
:104CC00033602368990642BF336802333360256836
:104CD00015F0060506D104F1190AE36832689B1A3B
:104CE000AB4226DC94F843302268003B18BF012316
:104CF00092062BD404F1430241463846C84701309E
:104D00001ED02368226903F00603042B02BFE56866
:104D10003368ED1AA3680CBF25EAE57500259342B8
:104D2000C4BF9B1AED1800261A34B5421AD10020D0
:104D300008E00123524641463846C847013003D1B6
:104D40004FF0FF30BDE8F0870135C6E7E1185A1C87
:104D5000302081F84300224494F8451082F8431033
:104D60000233C7E70123224641463846C84701308F
:104D7000E6D00136D9E700002DE9FF470F7E0C9EF3
:104D8000782F914680460C469A4601F1430207D897
:104D9000622F0AD8002F00F0D280582F00F0B9807F
:104DA00004F1420684F842703AE0A7F16303152B40
:104DB000F6D801A151F823F0114E0008254E000845
:104DC000A14D0008A14D0008A14D0008A14D00080B
:104DD000254E0008A14D0008A14D0008A14D000876
:104DE000A14D0008254F00084F4E0008DF4E000877
:104DF000A14D0008A14D0008474F0008A14D000833
:104E00004F4E0008A14D0008A14D0008E74E0008D4
:104E100033681A1D1B68326004F1420684F8423080
:104E200001239DE033682068191D3160060601D515
:104E30001D6803E04506FBD5B3F90050002D03DAE9
:104E40002D236D4284F8433059480A2311E021682C
:104E50003368080653F8045B02D4490648BFADB274
:104E60006F2F5348336014BF0A230823002184F8AE
:104E700043106668A660002EA2BF216821F00401DD
:104E800021600DB9002E4BD01646B5FBF3F103FBA4
:104E90001157C75D06F8017D2F46BB420D46F4D978
:104EA000082B0BD12368DF0708D523696168994275
:104EB000DEBF302306F8013C06F1FF36921B22616B
:104EC000CDF800A04B4603AA21464046FFF7E6FE78
:104ED00001304AD14FF0FF3004B0BDE8F0872368BD
:104EE00043F0200323603348782784F84570236813
:104EF00031681F0651F8045B02D45F0648BFADB2AB
:104F00003160D90744BF43F0200323601DB1102353
:104F1000ACE72748E9E7236823F020032360F6E79E
:104F20001646BDE7336825686169181D30602E0696
:104F30001B6801D5196002E06806FBD519800023C3
:104F400023611646BCE733681A1D32601E6862682A
:104F500000213046FBF73CF908B1801B60606368B4
:104F60002361002384F84330AAE723693246494687
:104F70004046D0470130ADD023689B0713D4E0688A
:104F8000039B9842B8BF1846A6E70123324649461C
:104F90004046D04701309DD00135E36803995B1A44
:104FA000AB42F2DCEBE7002504F11906F5E700BFA0
:104FB000C9520008DA520008884210B501EB020419
:104FC00002D98442234607D8431EA14208D011F8D3
:104FD000012B03F8012FF8E7024401468A4200D171
:104FE00010BD13F8014D02F8014DF7E70A44914254
:104FF00000F1FF3300D1704710B511F8014B03F8F1
:10500000014F9142F9D110BD2DE9F041804615467E
:105010000C4621B9BDE8F0411146FFF7ADBB2AB9F6
:10502000FFF79AFC00242046BDE8F08100F01AF852
:105030008542064602D8B5EB500FF4D829464046C3
:10504000FFF79AFB07460028ECD0B5422A462146D6
:1050500028BF3246FFF7CAFF21464046FFF77CFCD7
:105060003C46E0E751F8043C181F002BBCBF0B582E
:10507000C01870470000000051EC100BC1F30A5338
:105080002DE9F041A3F2FF36132E0C46054680466B
:105090002EDC002E11DA32A3D3E90023FBF7EEF861
:1050A00000220023FBF71EFB20B1002C4FDB254321
:1050B00051D12C462146284623E02B4F374101EAA7
:1050C000070303431DD026A3D3E90023FBF7D6F83B
:1050D00000220023FBF706FB0028EBD0002CC2BF08
:1050E0004FF480133341E41824EA07040025E1E774
:1050F000332E0ADDB6F5806F03D102460B46FBF76F
:10510000BDF841EC100BBDE8F081A3F213434FF062
:10511000FF37DF403842F4D011A3D3E90023FBF777
:10512000ADF800220023FBF7DDFA0028C2D0002CE6
:105130000ADD142E01D1013406E0C6F13406012344
:10514000B3401D44A845F6D825EA0705B2E7002577
:105150004FF00044AEE7054C0025ABE7AFF300800D
:105160009C7500883CE4377EFFFF0F000000F03F95
:10517000F8B500BFF8BC08BC9E467047F8B500BF44
:08518000F8BC08BC9E46704714
:105188000000000000000000000000000000000017
:10519800000000000E1111111F1111001E11111E27
:1051A80011111E000E11101010110E001C121111F9
:1051B80011121C001F10101E10101F001F10101EAF
:1051C800101010000E11101711110F001111111FDE
:1051D800111111000E04040404040E000702020257
:1051E80002120C00111214181412110010101010D1
:1051F80010101F00111B151511111100111119158F
:10520800131111000E11111111110E001E11111E92
:10521800101010000E11111115120D001E11111E83
:10522800141211000F10100E01011E001F040404B7
:10523800040404001111111111110E0011111111A2
:10524800110A04001111111515150A0011110A048B
:105258000A1111001111110A040404001F010204AB
:1052680008101F0000000000000C0C00FCFC0000EF
:105278005748590D0A000000000000000000000017
:1052880001020304060708090000000001020304E4
:1052980002030405060708090A0B0C0D0E0F10106F
:1052A8000102030405060708090A0B0C0D0E0F106E
:1052B800232D302B2000686C4C00656667454647F7
:1052C800003031323334353637383941424344457A
:1052D80046003031323334353637383961626364E9
:0452E80065660000F7
:0852EC00E4AEFF7F01000000A9
:0452F400B5010008F8
:0452F8009101000818
:1052FC0000127A00100000000100000010000020D5
:10530C0000000000DC01002044020020AC02002060
:10531C000000000000000000000000000000000081
:10532C000000000000000000000000000000000071
:10533C000000000000000000000000000000000061
:0C534C0000000000000000000000000055
:0400000508001CB51E
:00000001FF
